:100000000C948E000C94B6000C94B6000C94B600C0
:100010000C94B6000C94B6000C94B6000C94D50960
:100020000C94B6000C94B6000C94B6000C94A20983
:100030000C94B6000C94B6000C94B6000C94B60068
:100040000C940D090C94B6000C9453090C94EA0915
:100050000C94B6000C94B6000C94B6000C94B60048
:100060000C94B6000C94B6000C9400000C940000A4
:100070000C9400000C9400004E414E494E495459D6
:10008000494E46CDCCCC3D0AD7233C17B7D1387763
:10009000CC2B329595E6241FB14F0A000020410079
:1000A00000C84200401C4620BCBE4CCA1B0E5AAEC3
:1000B000C59D7400000000240027002A002D0000C8
:1000C000000000250028002B002E00040404040476
:1000D00004040402020202020203030303030305F1
:1000E00005050505050503010204081020408001EF
:1000F0000204081020010204081020020801041064
:1001000020404000000008500201000003040700E6
:1001100000000000000000000000230B11241FBE9F
:10012000CFEFD8E0DEBFCDBF11E0A0E0B1E0E2EE5E
:10013000FFE102C005900D92A434B107D9F728E081
:10014000A4E4B1E001C01D92AB34B207E1F710E0C6
:10015000CEE8D0E004C02197FE010E94E90FCD381F
:10016000D107C9F70E94420A0C94EF0F0C940000CB
:10017000E0E1F1E02491E4EFF0E03491E8EDF0E02B
:100180009491992361F12223C9F021502B30B0F4CE
:10019000E22FF0E0E253FF4F0C94E90FF400F80077
:1001A000D900F000DE00DE00FB00010105010B01BB
:1001B0000F01209180002F7720938000E92FF0E03D
:1001C000EE0FFF1FE154FF4FA591B4919FB7F89434
:1001D000EC91811128C030953E233C939FBF089538
:1001E000209180002F7DE8CF24B52F7724BDE6CF66
:1001F00024B52F7DFBCF2091B0002F772093B00046
:10020000DDCF2091B0002F7DF9CF209190002F7786
:1002100020939000D3CF209190002F7DF9CF209193
:100220009000277FF5CF3E2BD8CFAF92BF92CF92D1
:10023000DF92EF92FF920F931F93CF93DF936C01A6
:100240007B018B01040F151FEB015E01AE18BF0887
:10025000C017D10759F06991D601ED91FC91019039
:10026000F081E02DC6010995892B79F7C501DF9151
:10027000CF911F910F91FF90EF90DF90CF90BF90A3
:10028000AF900895FC01538D448D252F30E0842FCD
:1002900090E0821B930B541710F0CF9608950197AE
:1002A0000895FC01918D828D981761F0A28DAE0F9B
:1002B000BF2FB11D5D968C91928D9F5F9F73928F22
:1002C00090E008958FEF9FEF0895FC01918D828D4E
:1002D000981731F0828DE80FF11D858D90E008951B
:1002E0008FEF9FEF0895FC01918D228D892F90E073
:1002F000805C9F4F821B91098F73992708958FE926
:1003000097E00E94730121E0892B09F420E0822FFD
:10031000089580E090E0892B29F00E947F018111EF
:100320000C9400000895FC01A48DA80FB92FB11DF5
:10033000A35ABF4F2C91848D90E001968F7399271B
:10034000848FA689B7892C93A089B1898C91806408
:100350008C93938D848D981306C00288F389E02DC9
:1003600080818F7D80830895EF92FF920F931F937A
:10037000CF93DF93EC0181E0888F9B8D8C8D981358
:1003800016C0E889F989808185FF11C0EE89FF894F
:100390006083E889F98980818064808381E090E0CE
:1003A000DF91CF911F910F91FF90EF900895F62E5E
:1003B0000B8D10E00F5F1F4F0F731127E02E8C8DF8
:1003C0008E110CC00FB607FCFACFE889F98980813D
:1003D00085FFF5CFCE010E949301F1CFEB8DEC0F9D
:1003E000FD2FF11DE35AFF4FF0820B8FEA89FB8945
:1003F00080818062D2CFCF93DF93EC01888D8823F8
:10040000B9F0AA89BB89E889F9898C9185FD03C077
:10041000808186FD0DC00FB607FCF7CF8C9185FF5C
:10042000F2CF808185FFEDCFCE010E949301E9CF0D
:10043000DF91CF910895CF93DF93282F30E0F9011A
:10044000E951FF4F449125533F4FF90124919AEE12
:10045000980F923010F58FEF84BF84BF2223D1F024
:10046000822F90E0880F991FFC01ED54FF4FA5915A
:10047000B491FC01E154FF4FC591D49161111AC0B0
:100480009FB7F8948C91409584238C93888148235E
:1004900048839FBFDF91CF9108958931F9F680910C
:1004A000F00082608EBB80E88093F0008EB3809372
:1004B000F000D4CF8FB7F894EC914E2B4C938FBFB4
:1004C000E9CFEF92FF920F931F93CF93DF937C01BD
:1004D000C0916007D091610710E000E080911501A4
:1004E0009091160108171907F8F4F701EC0FFD1F9A
:1004F000608180915D0790915E07860F911D9093BA
:100500005E0780935D078FE997E00E94B401219612
:1005100080911701909118018C179D0711F4D0E07C
:10052000C0E00F5F1F4FDACFDF91CF911F910F9186
:10053000FF90EF900895CF93C82F10925E0710920E
:100540005D0781E00E94B80045E150E064E071E0A1
:100550008FE997E00E94150180915D0790915E07F9
:10056000E4E0F1E029E131E04191840F911D2E1783
:100570003F07D1F790935E0780935D07CC23C1F0CE
:1005800080910F0180FF04C08DE595E00E9461021B
:1005900080910F0181FF04C08DE593E00E9461020C
:1005A00080910F018C7321F08DE591E00E94610232
:1005B00042E050E06DE577E08FE997E00E94150199
:1005C00044E050E060E071E08FE997E00E9415019F
:1005D000109211018FE997E00E94FB0180E0CF911A
:1005E0000C94B8001092900088E18093910020E074
:1005F00034E244EF5BE46091060170910701809161
:100600000801909109010E946C0D20E030E040E863
:100610005FE30E947E0E0E94740F6F3F2FEF720700
:100620008105910580F47093970060939600809106
:100630009100816080939100109295001092940037
:100640008FEF88BB0895683F2FEF720727E082077E
:10065000910578F453E096958795779567955A9527
:10066000D1F770939700609396008091910082601B
:10067000E1CF603C2FEF72072FE38207910578F4FA
:1006800046E096958795779567954A95D1F770934B
:10069000970060939600809191008360CBCF6115A5
:1006A0002FEF72078207910560F4672F782F892F4B
:1006B00099277093970060939600809191008460D1
:1006C000B9CF61152CEF72072FEF820723E0920755
:1006D00008F0B2CF2AE096958795779567952A9589
:1006E000D1F7709397006093960080919100856098
:1006F000A1CFCF92DF92EF92FF92CF9320E034E22E
:1007000044EF5BE46091060170910701809108015C
:10071000909109010E946C0D20E030E040EB51E423
:100720000E94020F6B017C0120E030E040E053E4C6
:100730000E94E40FC7E087FF42C020E030E040E8BD
:1007400052E4C701B6010E94E40FC6E087FF37C03C
:1007500020E030E040E052E4C701B6010E94E40F1F
:10076000C5E087FF2CC020E030E040E851E4C7013D
:10077000B6010E94E40FC4E087FF21C020E030E012
:1007800040E051E4C701B6010E94E40FC3E087FFD7
:1007900016C020E030E040E850E4C701B6010E94F6
:1007A000E40FC2E087FF0BC0C1E020E030E040E092
:1007B00050E4C701B6010E94E40F87FDC0E0E0915C
:1007C0000C01F0E0EE0FFF1FE75EFE4F808191818C
:1007D000906690937C00C06EC0937A0010927B006C
:1007E00092E090937D0091E09093AD0020E2829F93
:1007F000C001112488698093DC00CF91FF90EF90B5
:10080000DF90CF900895CF93DF9300D0CDB7DEB7C0
:100810002091450830914608CE01019621153105F9
:1008200059F48B5498409A83898389819A810F90D7
:100830000F90DF91CF910895821B930BE0914708B1
:10084000F091480830E020E0309751F02E5F3F4FA4
:1008500040815181240F351F0280F381E02DF4CFB8
:10086000820F931FE0CF6F927F928F929F92AF92F1
:10087000BF92CF92DF92EF92FF920F931F93CF938D
:10088000DF93CDB7DEB704E011E0D80119968C9163
:10089000833009F082C0EFE5F7E08081882389F199
:1008A00010820E9479030E94F202F80122813381B2
:1008B0004481558160E070E080E89FE30E94020F70
:1008C00020E030E040EF51E40E94020F0E94740FDC
:1008D000D80152967C936E935197672B31F481E047
:1008E00090E052969C938E935197E4E0F1E08389D7
:1008F00094890197218932898217930710F4928B8A
:10090000818B609160077091610740911501509152
:100910001601DD24DA9439E7832E912CEFE5F7E018
:100920004115510539F1C19BFECFD8BAD4010C91C4
:10093000C3B019B1B6B0818192819C01235A3A4F5C
:10094000D9010C939C01235A3C4F79012C2D2F7116
:10095000107E212BD7012C938C01035A1E4F3B2D67
:100960003C73D8013C9301969170928381834150EE
:100970005109D6CF7093610760936007DF91CF91E3
:100980001F910F91FF90EF90DF90CF90BF90AF90AD
:100990009F908F907F906F900895811157C084E44D
:1009A00091E00E94540B892B29F010928100109243
:1009B0001201E4CF0FE610E0F801108210928000DF
:1009C000E1E8F0E085E0808380818860808324E036
:1009D000E22E21E0F22ED70153966D917C9190E0AA
:1009E00080E00E940B0DF701228133814481558103
:1009F0000E946C0D2AE037ED43E25CE30E947F0E1B
:100A000020E034E244EF5BE40E946C0D20E030E033
:100A100040E85AE30E946C0D20E030E040E250E4F0
:100A20000E946C0D0E94EB0E0E94740F90935C016B
:100A300080935B0170938900609388001092850019
:100A400010928400D8018C9182608C93E4E0F1E0F4
:100A500003891489128B018BD284C180E680F780D0
:100A6000B1E0BD1508F41EC1B0808B2DE2E0BE16CA
:100A700008F482E09EEF992E980E8B2DFDEFFB156A
:100A800008F48DEFA2E0AA2EA80E015011090E194C
:100A90001F090E9479030E94F2025FEFB9E76B2EF3
:100AA000712CEFE5F7E021E0E21AF10810F1C19BAB
:100AB000FECF58BBD3018C9043B179B166B181812F
:100AC00092819C01235A3A4FD9018C929C01235A5E
:100AD0003C4F4F71707E472BD9014C939C01235A98
:100AE0003E4F6C73D9016C93019691709283818310
:100AF000DACF5FEFF9E7EF2EF12CEFE5F7E0CC204E
:100B000009F452C0C19BFECF58BBD7013C9123B121
:100B100089B12F71807E282B46B181819281BC01E1
:100B2000635A7A4FDB013C93BC01635A7C4FDB0173
:100B30002C93BC01635A7E4F4C73DB014C9301969E
:100B4000917092838183D110322F3A15D8F25FEFE2
:100B500069E7E62EF12CEFE5F7E0C19BFECF58BB2D
:100B6000D7014C9123B189B12F71807E282B36B1EA
:100B700081819281BC01635A7A4FDB014C93BC01A5
:100B8000635A7C4FDB012C93BC01635A7E4F3C734C
:100B9000DB013C930196917092838183D11001C057
:100BA000242FB216D0F251C0C19BFECF58BBD70143
:100BB0003C9123B189B12F71807E282B46B1818170
:100BC0009281BC01635A7A4FDB013C93BC01635AAA
:100BD0007C4FDB012C93BC01635A7E4F4C73DB01CD
:100BE0004C930196917092838183D110322F93168A
:100BF000D8F25FEFE9E7EE2EF12CEFE5F7E0C19BCD
:100C0000FECF58BBD7014C9123B189B12F71807EA3
:100C1000282B36B181819281BC01635A7A4FDB0166
:100C20004C93BC01635A7C4FDB012C93BC01635A8B
:100C30007E4F3C73DB013C930196917092838183DC
:100C4000D11001C0242F2B15D0F2FF24FA9479E79C
:100C5000C72ED12CEFE5F7E00150110908F444C18B
:100C6000C19BFECFF8BAD6015C9123B149B136B130
:100C700081819281BC01635A7A4FDB015C93BC0194
:100C8000635A7C4F2F71407E242BDB012C93AC01E7
:100C9000435A5E4F3C73DA013C9301969170928304
:100CA0008183DACF0E191F090E9479030E94F20294
:100CB0007FEF49E7842E912CEFE5F7E0B1E0EB1AE6
:100CC000F10810F1C19BFECF78BBD401BC9023B1D9
:100CD00069B136B181819281AC01435A5A4FDA0130
:100CE000BC92AC01435A5C4F2F71607E262BDA0117
:100CF0002C93AC01435A5E4F3C73DA013C9301964E
:100D0000917092838183DACF41E050E002C0440FBA
:100D1000551FDA94E2F7BB24BA9439E7832E912C5D
:100D2000EFE5F7E0CC2009F45AC0C19BFECFB8BA7A
:100D3000D401DC9093B1C9B086B18C73218132812A
:100D4000B901635A7A4FDB01DC92B901635A7C4FD7
:100D50007B019F716C2D607E962BD7019C93B9010E
:100D6000635A7E4FDB018C932F5F3F4F317032838C
:100D7000218390E084239523892BB9F2BB24BA9474
:100D800089E7882E912CEFE5F7E0C19BFECFB8BA3A
:100D9000D401DC9093B1C9B086B18C7321813281CA
:100DA000B901635A7A4FDB01DC92B901635A7C4F77
:100DB0007B019F716C2D607E962BD7019C93B901AE
:100DC000635A7E4FDB018C932F5F3F4F317032832C
:100DD000218390E084239523892BB9F659C0C19BC8
:100DE000FECFB8BAD401DC9093B1C9B086B18C7390
:100DF00021813281B901635A7A4FDB01DC92B9015A
:100E0000635A7C4F7B019F716C2D607E962BD701BE
:100E10009C93B901635A7E4FDB018C932F5F3F4F48
:100E200031703283218390E084239523892BB9F696
:100E3000BB24BA9429E7822E912CEFE5F7E0C19B01
:100E4000FECFB8BAD401DC9093B1C9B086B18C732F
:100E500021813281B901635A7A4FDB01DC92B901F9
:100E6000635A7C4F7B019F716C2D607E962BD7015E
:100E70009C93B901635A7E4FDB018C932F5F3F4FE8
:100E800031703283218390E084239523892BB9F23A
:100E9000FF24FA9499E7C92ED12CEFE5F7E0015031
:100EA000110910F1C19BFECFF8BAD6015C9123B1B4
:100EB00049B136B181819281BC01635A7A4FDB011D
:100EC0005C93BC01635A7C4F2F71407E242BDB0165
:100ED0002C93AC01435A5E4F3C73DA013C9301966C
:100EE000917092838183DBCF10927A0081E08093AE
:100EF00012011092810042CDCF93DF93CDB7DEB7C0
:100F00000E940304909314018093130180E00E94D7
:100F10009B0280E00E949B0286E897E00E94540BAF
:100F2000892B19F0E1E8F0E0108280919E07882378
:100F300009F46AC110929E0785E0B82E93E0A92EAD
:100F4000712C612C2BE0922E88248A948FE997E0F3
:100F50000E947301892B09F457C18FE997E00E9421
:100F600051018E33910509F03AC1E3E6F7E01081B3
:100F700084E697E00E94500B6B017C010E94030401
:100F8000909314018093130110926207E3E6F7E057
:100F9000108210921001EFEBE10FE63100F50E2EFA
:100FA000000CFF0BEA52F84F0C94E90F1A08B00836
:100FB000F4079408EF07EF07EF07EF07EF07EF07D6
:100FC000EF07EF07B708EF07EF073608EF07EC0763
:100FD0005E08D308EF07FD0781E00E949B0281E0D5
:100FE000EFE5F7E08083B2CFC0920601D09207010F
:100FF000E0920801F0920901F2CF20E030E0A9016F
:10100000C701B6010E94060D60E087FD0FC020E019
:1010100030E04FE753E4C701B6010E94E40F682DAA
:10102000181624F0C701B6010E94740FE4E0F1E045
:101030006083D5CF20E030E0A901C701B6010E944E
:10104000060D60E087FD0FC020E030E040E351E492
:10105000C701B6010E94E40F692D181624F0C701DC
:10106000B6010E94740F60930C01B9CF20E030E00C
:10107000A901C701B6010E94060D072D162D87FD97
:1010800018C0009117011091180101501109B80101
:1010900090E080E00E940B0D9B01AC01C701B601FE
:1010A0000E94E40F18162CF0C701B6010E94740FBD
:1010B0008B0110930B0100930A0191CF20E030E0E7
:1010C00040E85FE3C701B6010E94060D31E020E071
:1010D00087FD12C020E030E040E054E4C701B601D3
:1010E0000E94E40F30E022E0181634F0C701B60188
:1010F0000E94740F362F272F309317012093180169
:1011000040910A0150910B0181E090E04115510599
:1011100031F0832F922F4817590708F4CA01909392
:101120000B0180930A015BCF20E030E0A901C701E9
:10113000B6010E94060D60E087FD0FC020E030E0A0
:1011400040E85FE3C701B6010E94E40F61E01816B2
:1011500024F0C701B6010E94740F609305013FCFD0
:10116000C701B6010E94740F60930F0138CF20E0D1
:1011700030E0A901C701B6010E94060D60E087FDBD
:101180000FC020E030E040E450E4C701B6010E9407
:10119000E40F6A2D181624F0C701B6010E94740FDF
:1011A00060930D011CCF20E030E0A901C701B6011A
:1011B0000E94060D60E087FD0FC020E030E040EAAD
:1011C00050E4C701B6010E94E40F6B2D181624F0FD
:1011D000C701B6010E94740F60930E0100CF2091E9
:1011E0006207223210F010926207E0916207AE2F80
:1011F000B0E0AD59B84F8C93EF5FE0936207F0E039
:10120000ED59F84F1082A2CEE1E0E0939D070E94D5
:10121000330410929D0781E07DCE1F920F920FB68E
:101220000F9211242F933F938F939F93AF93BF936C
:101230008091410890914208A0914308B0914408E0
:101240003091400820E4230F2D3728F023EC230FA2
:101250000196A11DB11D20934008809341089093F1
:101260004208A0934308B093440880913C089091B1
:101270003D08A0913E08B0913F080196A11DB11D07
:1012800080933C0890933D08A0933E08B0933F089C
:10129000BF91AF919F918F913F912F910F900FBE72
:1012A0000F901F9018951F920F920FB60F92112456
:1012B0002F933F934F935F936F937F938F939F935E
:1012C000AF93BF93EF93FF93E091AF07F091B00717
:1012D0008081E091B507F091B60782FD20C0908132
:1012E0008091B8078F5F8F732091B907821741F003
:1012F000E091B807F0E0E156F84F958F8093B8077A
:1013000081E080939E0780919D07882351F0109281
:101310009D0761E070E086E897E00E94740B808191
:10132000EFCFFF91EF91BF91AF919F918F917F91FF
:101330006F915F914F913F912F910F900FBE0F9042
:101340001F9018951F920F920FB60F9211242F9392
:101350003F934F935F936F937F938F939F93AF933D
:10136000BF93EF93FF9380915B0190915C01009795
:1013700031F461E070E084E491E00E94740B019725
:1013800090935C0180935B01FF91EF91BF91AF91CE
:101390009F918F917F916F915F914F913F912F918D
:1013A0000F900FBE0F901F9018951F920F920FB6BF
:1013B0000F9211248F93EF93FF93E1EAF0E0808185
:1013C0008F5F8083FF91EF918F910F900FBE0F90F1
:1013D0001F9018951F920F920FB60F9211242F9302
:1013E0003F934F935F936F937F938F939F93AF93AD
:1013F000BF93EF93FF938FE997E00E949301FF91D2
:10140000EF91BF91AF919F918F917F916F915F917C
:101410004F913F912F910F900FBE0F901F901895F5
:101420001F920F920FB60F9211242F938F939F93B9
:10143000EF93FF93E091AF07F091B0078081E091C7
:10144000B507F091B60782FD1BC090818091B80767
:101450008F5F8F732091B907821741F0E091B80731
:10146000F0E0E156F84F958F8093B807FF91EF9128
:101470009F918F912F910F900FBE0F901F901895F5
:101480008081F4CFE2EFF0E0808180618EBB80E864
:1014900080839EB39083E1E6F0E0808391E09083C7
:1014A00080831082789484B5826084BD84B5816025
:1014B00084BD85B5826085BD85B5816085BDCEE67C
:1014C000D0E0888181608883E1E8F0E0108280814B
:1014D00082608083808181608083E0E8F0E08081A9
:1014E00081608083E1EBF0E0808184608083E0EBC9
:1014F000F0E0808181608083E1E9F0E080818260BA
:101500008083808181608083E0E9F0E08081816078
:101510008083EAE7F0E080818460808380818D7F32
:10152000808380818E7F8083808180688083109219
:10153000C10061E08DE00E941B02EFE9F7E0A089A5
:10154000B18982E08C93A485B5851C92A685B78568
:1015500082E28C93108EA489B58986E08C93A2894F
:10156000B3898C9180618C93A289B3898C918860B6
:101570008C93A289B3898C9180688C930288F389BB
:10158000E02D80818F7D808388818E7F8883EFE648
:10159000F0E080818E7F8083E0E7F0E080818E7FC5
:1015A0008083E1E7F0E080818E7F8083EEE7F0E0EA
:1015B000808181608083808182608083808184607B
:1015C0008083808188608083EFE7F0E080818064A1
:1015D000808360E089E10E941B0260E08EE00E944F
:1015E0001B0260E088E00E941B0260E089E00E942C
:1015F0001B0260E08AE00E941B0260E08BE00E9418
:101600001B0260E08CE00E941B0260E085E00E940B
:101610001B0260E086E00E941B0260E087E00E94FF
:101620001B0260E080E10E941B0260E081E10E94F9
:101630001B0260E082E10E941B0260E083E10E94E5
:101640001B020E947C07EFE9F7E01382128288EE0A
:1016500093E0A0E0B0E084839583A683B78385E31D
:1016600091E09183808385EC90E09587848784EC7A
:1016700090E09787868780EC90E0918B808B81EC5F
:1016800090E0938B828B82EC90E0958B848B86EC40
:1016900090E0978B868B118E128E138E148E089588
:1016A000662777270C94950BDC012D923D924D9285
:1016B0005D926D927D928D929D92AD92BD92CD92F2
:1016C000DD92ED92FD920D931D93CD93DD93FF91ED
:1016D000EF918DB78D938EB78D938FB78D93ED93DB
:1016E000FD93882799270994DC01CB01813091056E
:1016F000811D2D903D904D905D906D907D908D90D1
:101700009D90AD90BD90CD90DD90ED90FD900D91B0
:101710001D91CD91DD91ED91FD910D90F894FEBF5D
:101720000FBEEDBFED91FD910994B0E0A0E0EBE9B3
:10173000FBE00C943E0E5C017B016115710519F014
:10174000DB018D939C9385010F5F1F4FF501D081C5
:101750008D2F90E00E94E50C6C01892BB9F5DD32EC
:10176000B9F50F5F1F4FD5011196DC91C1E058010B
:10177000F1E0AF1AB10843E050E060E870E0C50165
:101780000E94EE0C892B69F5680182E0C80ED11C1D
:1017900045E050E06BE770E0C6010E94EE0C892B3B
:1017A00021F4680197E0C90ED11CE114F10419F08D
:1017B000D701CD92DC9260E070E080E89FEFC1112C
:1017C000FFC060E070E080E89FE7FAC05801BBCF3F
:1017D000DB3229F485010E5F1F4FF501D181C0E096
:1017E000C6CF43E050E068E770E0C5010E94EE0C10
:1017F000892BE9F0F80110E000E020E030E0A901D9
:101800005F01B0ED8B2E8D0E89E08815C8F19C2EFE
:10181000689491F88C2F8870C2FF16C0811102C0A5
:101820000F5F1F4F3196D501DC91C92DE9CFE1142F
:10183000F10429F00E5F1F4FF7011183008360E070
:1018400070E080EC9FE7BCC0882311F001501109C3
:10185000A5E0B0E00E942D0E9B01AC01220F331FCA
:10186000441F551F280D311D411D511D283999E96F
:101870003907490799E15907A8F2C6609C2ED2CFD3
:10188000AEEF8A1206C0C3FD3CC09C2E689493F84C
:10189000C9CFDF7DD534A9F580818D3239F4C0619F
:1018A000DF011296818162E070E006C0DF018B32B9
:1018B000C1F3119661E070E080535D01A61AB70A8A
:1018C0008A30F8F4E0E8CE16ECE0DE065CF4B6010F
:1018D000660F771F660F771FC60ED71ECC0CDD1C58
:1018E000C80ED11C5D01FFEFAF1ABF0A8C91805367
:1018F0008A30A8F1C4FF03C0D194C194D1080C0D63
:101900001D1DC1FF09C0E114F10431F081E0A81AE6
:10191000B108D701AD92BC92CA01B9010E940B0D6A
:10192000C370C33009F490584B015C0120E030E0F3
:10193000A9010E94060D882309F440C0CFEAD0E037
:1019400017FF05C0119501951109C7E9D0E06E0197
:10195000B8E1CB1AD10880E2E82EF12C0FC0D501F6
:10196000B1CFFE0125913591459154910E191F0972
:10197000C501B4010E946C0D4B015C01D501C4018D
:101980000E151F0574F72497F594E794CC16DD0621
:10199000A9F78A2F880F8B2F881F8F3F49F020E0EF
:1019A00030E0A901C501B4010E94060D811106C0F5
:1019B00082E290E090934A0880934908C501B401FF
:1019C000CDB7DEB7ECE00C945A0E91110C94D90D02
:1019D000803219F089508550C8F70895FB01DC0169
:1019E0004150504088F08D9181341CF08B350CF4BF
:1019F000805E659161341CF06B350CF4605E861B73
:101A0000611171F3990B0895881BFCCF0E94480D5A
:101A100008F481E00895E89409C097FB3EF490959E
:101A20008095709561957F4F8F4F9F4F9923A9F0B7
:101A3000F92F96E9BB279395F69587957795679546
:101A4000B795F111F8CFFAF4BB0F11F460FF1BC08A
:101A50006F5F7F4F8F4F9F4F16C0882311F096E91D
:101A600011C0772321F09EE8872F762F05C06623CB
:101A700071F096E8862F70E060E02AF09A95660F84
:101A8000771F881FDAF7880F9695879597F908953D
:101A9000990F0008550FAA0BE0E8FEEF161617067F
:101AA000E807F907C0F012161306E407F50798F0E7
:101AB000621B730B840B950B39F40A2661F0232B00
:101AC000242B252B21F408950A2609F4A140A6957C
:101AD0008FEF811D811D08950E947F0D0C94F30DE1
:101AE0000E94E50D38F00E94EC0D20F0952311F0D6
:101AF0000C94DC0D0C94E20D11240C94270E0E9422
:101B0000040E70F3959FC1F3950F50E0551F629F2F
:101B1000F001729FBB27F00DB11D639FAA27F00D46
:101B2000B11DAA1F649F6627B00DA11D661F829F6D
:101B30002227B00DA11D621F739FB00DA11D621F52
:101B4000839FA00D611D221F749F3327A00D611D6F
:101B5000231F849F600D211D822F762F6A2F112451
:101B60009F5750409AF0F1F088234AF0EE0FFF1F84
:101B7000BB1F661F771F881F91505040A9F79E3FDB
:101B8000510580F00C94DC0D0C94270E5F3FE4F3BC
:101B9000983ED4F3869577956795B795F795E79531
:101BA0009F5FC1F7FE2B880F911D9695879597F93A
:101BB000089599278827089597F99F6780E870E02E
:101BC00060E008959FEF80EC089500240A941616B3
:101BD000170618060906089500240A94121613061B
:101BE000140605060895092E0394000C11F48823A9
:101BF00052F0BB0F40F4BF2B11F460FF04C06F5FC5
:101C00007F4F8F4F9F4F089557FD9058440F551F9A
:101C100059F05F3F71F04795880F97FB991F61F06E
:101C20009F3F79F087950895121613061406551FE5
:101C3000F2CF4695F1DF08C0161617061806991F51
:101C4000F1CF86957105610508940895E894BB2746
:101C500066277727CB0197F908950E946F0EA59FFD
:101C6000900DB49F900DA49F800D911D1124089597
:101C70002F923F924F925F926F927F928F929F929C
:101C8000AF92BF92CF92DF92EF92FF920F931F938A
:101C9000CF93DF93CDB7DEB7CA1BDB0B0FB6F8943B
:101CA000DEBF0FBECDBF09942A88398848885F847B
:101CB0006E847D848C849B84AA84B984C884DF80EC
:101CC000EE80FD800C811B81AA81B981CE0FD11DD0
:101CD0000FB6F894DEBF0FBECDBFED010895A29FF1
:101CE000B001B39FC001A39F700D811D1124911DF0
:101CF000B29F700D811D1124911D08955058BB276E
:101D0000AA270E94960E0C94F30D0E94E50D38F060
:101D10000E94EC0D20F039F49F3F19F426F40C9446
:101D2000E20D0EF4E095E7FB0C94DC0DE92F0E9428
:101D3000040E58F3BA17620773078407950720F05B
:101D400079F4A6F50C94260E0EF4E0950B2EBA2F1E
:101D5000A02D0B01B90190010C01CA01A0011124B1
:101D6000FF27591B99F0593F50F4503E68F11A165D
:101D7000F040A22F232F342F4427585FF3CF4695EE
:101D800037952795A795F0405395C9F77EF41F1610
:101D9000BA0B620B730B840BBAF09150A1F0FF0FDA
:101DA000BB1F661F771F881FC2F70EC0BA0F621FC6
:101DB000731F841F48F4879577956795B795F795B6
:101DC0009E3F08F0B0CF9395880F08F09927EE0F4B
:101DD0009795879508950E94CC0F90F09F3748F40F
:101DE000911116F40C94270E60E070E080E89FE3F8
:101DF000089526F01B16611D711D811D0C94A30F03
:101E00000C94BE0F0E94160F0C94F30D0E94EC0D63
:101E100058F00E94E50D40F029F45F3F29F00C9442
:101E2000DC0D51110C94270E0C94E20D0E94040E4F
:101E300068F39923B1F3552391F3951B550BBB27F9
:101E4000AA2762177307840738F09F5F5F4F220F3E
:101E5000331F441FAA1FA9F335D00E2E3AF0E0E835
:101E600032D091505040E695001CCAF72BD0FE2F7F
:101E700029D0660F771F881FBB1F26173707480713
:101E8000AB07B0E809F0BB0B802DBF01FF279358CB
:101E90005F4F3AF09E3F510578F00C94DC0D0C94A6
:101EA000270E5F3FE4F3983ED4F3869577956795C8
:101EB000B795F7959F5FC9F7880F911D9695879500
:101EC00097F90895E1E0660F771F881FBB1F62171F
:101ED00073078407BA0720F0621B730B840BBA0BDD
:101EE000EE1F88F7E09508950E940C0E88F09F572A
:101EF00098F0B92F9927B751B0F0E1F0660F771F2E
:101F0000881F991F1AF0BA95C9F714C0B13091F023
:101F10000E94260EB1E008950C94260E672F782FAC
:101F20008827B85F39F0B93FCCF3869577956795E8
:101F3000B395D9F73EF490958095709561957F4F54
:101F40008F4F9F4F0895882371F4772321F0985085
:101F5000872B762F07C0662311F499270DC0905167
:101F6000862B70E060E02AF09A95660F771F881F35
:101F7000DAF7880F9695879597F908959F3F31F086
:101F8000915020F4879577956795B795880F911DA7
:101F90009695879597F908950E940C0EA0F0BEE7DC
:101FA000B91788F4BB279F3860F41616B11D672F48
:101FB000782F8827985FF7CF869577956795B11D1D
:101FC00093959639C8F308950E94480D08F48FEF51
:101FD0000895EE0FFF1F0590F491E02D0994F894F9
:021FE000FFCF31
:101FE2000001FFFD8001A48C3836000002000000D1
:101FF2000100006400000000020008000E00000161
:102002000802080308010E0100020E0200030E037B
:102012000000000000B40115014201FB01730151EF
:042022000165010053
:00000001FF
