:100000000C948E000C94B6000C94B6000C94B600C0
:100010000C94B6000C94B6000C94B6000C94A70A8D
:100020000C94B6000C94B6000C94B6000C94740AB0
:100030000C94B6000C94B6000C94B6000C94B60068
:100040000C94E2090C94B6000C94280A0C94BE0A95
:100050000C94B6000C94B6000C94B6000C94B60048
:100060000C94B6000C94B6000C9400000C940000A4
:100070000C9400000C9400004E414E494E495459D6
:10008000494E46CDCCCC3D0AD7233C17B7D1387763
:10009000CC2B329595E6241FB14F0A000020410079
:1000A00000C84200401C4620BCBE4CCA1B0E5AAEC3
:1000B000C59D7400000000240027002A002D0000C8
:1000C000000000250028002B002E00040404040476
:1000D00004040402020202020203030303030305F1
:1000E00005050505050503010204081020408001EF
:1000F0000204081020010204081020020801041064
:1001000020404000000008500201000003040700E6
:1001100000000000000000000000060C11241FBEBB
:10012000CFEFD8E0DEBFCDBF11E0A0E0B1E0EEE15F
:10013000F0E202C005900D92A434B107D9F728E08F
:10014000A4E4B1E001C01D92A135B207E1F710E0CF
:10015000CEE8D0E004C02197FE010E940710CD3800
:10016000D107C9F70E94160B0C940D100C940000D7
:10017000E82FF0E0EE0FFF1FE55DFE4F80819181DB
:10018000906690937C0092EE90937A0010927B00A0
:1001900092E090937D0091E09093AD0020E2829FE9
:1001A000C001112488698093DC000895E0E1F1E04A
:1001B0002491E4EFF0E03491E8EDF0E0949199239C
:1001C00061F12223C9F021502B30B0F4E22FF0E08E
:1001D000E451FF4F0C94071012011601F7000E01B5
:1001E000FC00FC0019011F01230129012D012091B0
:1001F00080002F7720938000E92FF0E0EE0FFF1FA3
:10020000E154FF4FA591B4919FB7F894EC918111FF
:1002100028C030953E233C939FBF089520918000D5
:100220002F7DE8CF24B52F7724BDE6CF24B52F7DD1
:10023000FBCF2091B0002F772093B000DDCF20912D
:10024000B0002F7DF9CF209190002F772093900060
:10025000D3CF209190002F7DF9CF20919000277F60
:10026000F5CF3E2BD8CFAF92BF92CF92DF92EF92D5
:10027000FF920F931F93CF93DF936C017B018B0150
:10028000040F151FEB015E01AE18BF08C017D107A0
:1002900059F06991D601ED91FC910190F081E02D2A
:1002A000C6010995892B79F7C501DF91CF911F917F
:1002B0000F91FF90EF90DF90CF90BF90AF90089597
:1002C000FC01538D448D252F30E0842F90E0821B5C
:1002D000930B541710F0CF96089501970895FC01E1
:1002E000918D828D981761F0A28DAE0FBF2FB11D39
:1002F0005D968C91928D9F5F9F73928F90E0089591
:100300008FEF9FEF0895FC01918D828D981731F04A
:10031000828DE80FF11D858D90E008958FEF9FEF9E
:100320000895FC01918D228D892F90E0805C9F4F74
:10033000821B91098F739927089585EA97E00E949F
:10034000910121E0892B09F420E0822F089580E0BB
:1003500090E0892B29F00E949D0181110C940000EE
:100360000895FC01A48DA80FB92FB11DA35ABF4F4A
:100370002C91848D90E001968F739927848FA689A4
:10038000B7892C93A089B1898C9180648C93938DCB
:10039000848D981306C00288F389E02D80818F7DBB
:1003A00080830895EF92FF920F931F93CF93DF9373
:1003B000EC0181E0888F9B8D8C8D981316C0E889A5
:1003C000F989808185FF11C0EE89FF896083E88902
:1003D000F98980818064808381E090E0DF91CF9112
:1003E0001F910F91FF90EF900895F62E0B8D10E066
:1003F0000F5F1F4F0F731127E02E8C8D8E110CC0D5
:100400000FB607FCFACFE889F989808185FFF5CF1F
:10041000CE010E94B101F1CFEB8DEC0FFD2FF11D4C
:10042000E35AFF4FF0820B8FEA89FB89808180625B
:10043000D2CFCF93DF93EC01888D8823B9F0AA89BE
:10044000BB89E889F9898C9185FD03C0808186FD8F
:100450000DC00FB607FCF7CF8C9185FFF2CF8081DE
:1004600085FFEDCFCE010E94B101E9CFDF91CF91A1
:100470000895CF93DF93282F30E0F901E951FF4F22
:10048000949125533F4FF9012491633009F03CC00A
:10049000843029F43091A0003C603093A0002223E6
:1004A000C9F030E0220F331FF901ED54FF4FA59141
:1004B000B491F901E154FF4FC591D49161110DC080
:1004C0002FB7F8948C91909589238C9388819823E9
:1004D00098832FBFDF91CF910895623051F42FB7E9
:1004E000F8943C91892F809583238C93E8819E2BEF
:1004F000EFCF843011F4613069F78FB7F894EC9145
:100500009E2B9C938FBFE6CF843009F0C8CF33E099
:10051000C4CFEF92FF920F931F93CF93DF937C0191
:10052000C0911701D0911801809115019091160189
:10053000C81BD90B00918B0710918C072097B9F03D
:10054000F701E00FF11F60818091640790916507CA
:10055000860F911D909365078093640785EA97E065
:100560000E94D2010F5F1F4F11702197E7CFDF91DB
:10057000CF911F910F91FF90EF900895CF93C82FC7
:10058000109265071092640781E00E94D60045E151
:1005900050E064E071E085EA97E00E9433018091C9
:1005A000640790916507E4E0F1E029E131E04191D1
:1005B000840F911D2E173F07D1F790936507809305
:1005C0006407CC23C1F080910F0180FF04C084E652
:1005D00095E00E94890280910F0181FF04C084E6AA
:1005E00093E00E94890280910F018C7321F084E6D0
:1005F00091E00E94890242E050E064E677E085EAFB
:1006000097E00E94330144E050E060E071E085EA49
:1006100097E00E9433011092110185EA97E00E9451
:10062000190280E0CF910C94D600109290001092A5
:10063000910020E034E244EF5BE4609106017091A8
:10064000070180910801909109010E944F0E0E94BC
:10065000D30FDC01CB018F3F2FEF9207A105B1052E
:1006600068F421E020939100709348016093470162
:100670000A9790934601809345011CC0883F2FEF55
:10068000920727E0A207B105D0F422E02093910061
:1006900053E0B695A795979587955A95D1F790937E
:1006A000480180934701BC01615071097093460174
:1006B0006093450110929500109294000895803C3B
:1006C0002FEF92072FE3A207B10578F423E02093E0
:1006D000910046E0B695A795979587954A95D1F7ED
:1006E0009093480180934701C4CF81152FEF920763
:1006F000A207B10540F424E020939100892F9A2F9E
:10070000AB2FBB27EDCF81152CEF92072FEFA20760
:1007100023E0B20778F625E0209391002AE0B69511
:10072000A795979587952A95D1F7DACFCF93DF9341
:1007300000D0CDB7DEB720914B0830914C08CE01E8
:1007400001962115310559F4815598409A83898382
:1007500089819A810F900F90DF91CF910895821B2C
:10076000930BE0914D08F0914E0830E020E0309777
:1007700051F02E5F3F4F40815181240F351F028081
:10078000F381E02DF4CF820F931FE0CF4F925F9261
:100790007F928F929F92AF92BF92CF92DF92EF9211
:1007A000FF920F931F93CF93DF93CDB7DEB704E093
:1007B00011E0D80119968C911997833009F0A3C0E4
:1007C00080918A078823A9F118968C910E94B8001D
:1007D0000E941503F801228133814481558160E034
:1007E00070E080E89FE30E94610F20E030E040E786
:1007F00052E40E94610F0E94D30F70934A016093EC
:100800004901672B31F481E090E090934A01809395
:100810004901809117019091180101972091490198
:1008200030914A018217930720F490934A018093F4
:10083000490160918B0770918C0750E040E0E4E93A
:10084000F0E009E710E03AE8A32E37E0B32E20915C
:10085000490130914A0142175307C8F58091470179
:10086000909148012081318128173907D8F3808180
:1008700091812091450130914601821B930B918318
:100880008083D801CC9023B1D9B036B1D50111966F
:100890008D919C91DC01AC59BA4FCC92DC01AC59E2
:1008A000BC4F7D012F71BD2DB07E2B2BD7012C931A
:1008B000DC01AC59BE4F3C733C9301969170D5015D
:1008C00012969C938E9311974F5F5F4FC0CF70939A
:1008D0008C0760938B07E4E0F1E083899489821BA5
:1008E000930B928B818BDF91CF911F910F91FF9092
:1008F000EF90DF90CF90BF90AF909F908F907F90C0
:100900005F904F90089581115AC08BE491E00E944E
:10091000370C892B49F010926F00109280001092D2
:10092000810010921201DFCF0FE610E0F801108273
:1009300010928000E1E8F0E085E0808380818860AB
:10094000808384E0E82E81E0F82E20E034E244EF5A
:100950005BE4D70112966D917D918D919C911597D5
:100960000E944F0E4B015C01F7016389748990E08E
:1009700080E00E94EE0D9B01AC01C501B4010E9414
:100980004F0E20E030E040E85AE30E944F0E0E94F4
:10099000D30FDC01CB01880F991FAA1FBB1FB09397
:1009A0006301A09362019093890080938800109264
:1009B000850010928400D8018C9182608C93E4E0D1
:1009C000F1E0128A118AD284A180E680F78003893F
:1009D00014898085B1E0BD1508F4B1C1C0809C2D9B
:1009E000E2E0CE1608F492E0BEEFBB2EB90E9C2DCD
:1009F000FDEFFC1508F49DEF72E0972E990E015063
:100A000011090E191F090E94B8000E9415031092C7
:100A1000950010929400E4E9F0E029E730E0AAE8BC
:100A20004A2EA7E05A2E41E0E41AF10880914701CE
:100A300090914801AFEFEA16FA06A1F14081518189
:100A400048175907D8F38081918140914501509111
:100A50004601841B950B91838083D9017C9063B1FF
:100A600089B076B1D20111968D919C91AC014C590F
:100A70005A4FDA017C92AC014C595C4F6F71B82D22
:100A8000B07E6B2BDA016C93AC014C595E4F7C73DA
:100A9000DA017C9301969170D20112969C938E9309
:100AA0001197C1CFE4E9F0E049E750E0AA2009F44A
:100AB00083C06AE8A62E67E0B62E80914701909128
:100AC00048012081318128173907D8F3808191812D
:100AD0002091450130914601821B930B91838083C5
:100AE000DA01FC9023B189B12F71807E282B36B1B9
:100AF000D50111968D919C91BC016C597A4FDB0107
:100B0000FC92BC016C597C4FDB012C93BC016C59ED
:100B10007E4F3C73DB013C9301969170D501129698
:100B20009C938E931197D11001C02F2D291528F277
:100B3000E4E9F0E049E750E08AE8A82E87E0B82E23
:100B40008091470190914801208131812817390710
:100B5000D8F3808191812091450130914601821B1B
:100B6000930B91838083DA01FC9023B189B12F71BB
:100B7000807E282B36B1D50111968D919C91BC01B8
:100B80006C597A4FDB01FC92BC016C597C4FDB0144
:100B90002C93BC016C597E4F3C73DB013C93019656
:100BA0009170D50112969C938E931197D11001C02C
:100BB0002F2DC21628F282C03AE8832E37E0932EFA
:100BC0008091470190914801208131812817390790
:100BD000D8F3808191812091450130914601821B9B
:100BE000930B91838083DA01FC9023B189B12F713B
:100BF000807E282B36B1D40111968D919C91BC0139
:100C00006C597A4FDB01FC92BC016C597C4FDB01C3
:100C10002C93BC016C597E4F3C73DB013C930196D5
:100C20009170D40112969C938E931197D11001C0AC
:100C30002F2DB21628F2E4E9F0E049E750E02AE867
:100C4000A22E27E0B22E8091470190914801208189
:100C5000318128173907D8F380819181209145018E
:100C600030914601821B930B91838083DA01FC90C3
:100C700023B189B12F71807E282B36B1D501119611
:100C80008D919C91BC016C597A4FDB01FC92BC01A7
:100C90006C597C4FDB012C93BC016C597E4F3C732B
:100CA000DB013C9301969170D50112969C938E9333
:100CB0001197D11001C02F2D2C1528F2E4E9F0E096
:100CC00049E750E09AE8C92E97E0D92E0150110962
:100CD00008F4DDC180914701909148012081318164
:100CE00028173907D8F380819181209145013091EF
:100CF0004601821B930B91838083DA017C9123B19F
:100D000069B136B1D60111968D919C91DC01AC5937
:100D1000BA4F7C93DC01AC59BC4F2F71607E262BFF
:100D20002C93BC016C597E4F3C73DB013C930196C4
:100D30009170D60112969C938E931197C7CF0E197E
:100D40001F090E94B8000E9415031092950010928E
:100D50009400E4E9F0E029E730E0BAE88B2EB7E050
:100D60009B2EB1E0EB1AF108809147019091480168
:100D70004FEFE416F406A1F140815181481759075D
:100D8000D8F3808191814091450150914601841BA7
:100D9000950B91838083D901BC9043B1C9B056B102
:100DA000D40111968D919C91BC016C597A4FDB0155
:100DB000BC92BC016C597C4F4F71BC2DB07E4B2B4B
:100DC000DB014C93BC016C597E4F5C73DB015C937F
:100DD00001969170D40112969C938E931197C1CF76
:100DE00021E030E002C0220F331FDA94E2F7E4E999
:100DF000F0E069E770E0AA2009F485C0AAE8AA2E0D
:100E0000A7E0BA2E8091470190914801408151811D
:100E100048175907D8F3808191814091450150913D
:100E20004601841B950B91838083DB01CC9053B1E9
:100E3000D9B046B14C73D50111968D919C91DC01CE
:100E4000AC59BA4FCC92DC01AC59BC4F7D015F71FB
:100E5000BD2DB07E5B2BD7015C93DC01AC59BE4F3E
:100E60004C9301969170D50112969C938E93119795
:100E7000842F90E082239323892B21F2E4E9F0E090
:100E800069E770E08AE8A82E87E0B82E80914701D4
:100E9000909148014081518148175907D8F38081CA
:100EA00091814091450150914601841B950B91839E
:100EB0008083DB01CC9053B1D9B046B14C73D501DE
:100EC00011968D919C91DC01AC59BA4FCC92DC010A
:100ED000AC59BC4F7D015F71BD2DB07E5B2BD7013E
:100EE0005C93DC01AC59BE4F4C9301969170D501D7
:100EF00012969C938E931197842F90E082239323D4
:100F0000892B21F684C05AE8A52E57E0B52E809192
:100F10004701909148014081518148175907D8F302
:100F2000808191814091450150914601841B950B30
:100F300091838083DB01CC9053B1D9B046B14C731F
:100F4000D50111968D919C91DC01AC59BA4FCC9290
:100F5000DC01AC59BC4F7D015F71BD2DB07E5B2BB8
:100F6000D7015C93DC01AC59BE4F4C930196917054
:100F7000D50112969C938E931197842F90E0822333
:100F80009323892B21F6E4E9F0E069E770E04AE871
:100F9000A42E47E0B42E80914701909148014081F2
:100FA000518148175907D8F38081918140914501BB
:100FB00050914601841B950B91838083DB01CC907B
:100FC00053B1D9B046B14C73D50111968D919C9116
:100FD000DC01AC59BA4FCC92DC01AC59BC4F7D015D
:100FE0005F71BD2DB07E5B2BD7015C93DC01AC59EA
:100FF000BE4F4C9301969170D50112969C938E939F
:101000001197842F90E082239323892B21F2E4E926
:10101000F0E049E750E09AE8C92E97E0D92E015058
:101020001109A8F1809147019091480120813181F7
:1010300028173907D8F3808191812091450130919B
:101040004601821B930B91838083DA017C9123B14B
:1010500069B136B1D60111968D919C91DC01AC59E4
:10106000BA4F7C93DC01AC59BC4F2F71607E262BAC
:101070002C93BC016C597E4F3C73DB013C93019671
:101080009170D60112969C938E931197C8CF1092AF
:101090007A0081E08093120110926F00109280001C
:1010A0001092810020CCCF93DF93CDB7DEB70E94A2
:1010B0009603909314018093130180E00E94BE0276
:1010C00080E00E94BE028DE897E00E94370C892BD9
:1010D00039F0EFE6F0E0108210928000109281006B
:1010E000EAE8F7E0108285E0B82E93E0A92E2BE025
:1010F000922E88248A9485EA97E00E949101892B98
:1011000009F457C185EA97E00E946F018E3391057B
:1011100009F03AC1E7E6F7E0108188E697E00E941F
:10112000330C6B017C010E94960390931401809311
:10113000130110926607E7E6F7E0108210921001A3
:10114000EFEBE10FE63100F50E2E000CFF0BE5553D
:10115000F74F0C940710EF088509C9086909C408FE
:10116000C408C408C408C408C408C408C4088C0956
:10117000C408C4080B09C408C1083309A809C40875
:10118000D20881E00E94BE0281E0EAE8F7E08083B5
:10119000B2CFC0920601D0920701E0920801F0920E
:1011A0000901F2CF20E030E0A901C701B6010E9499
:1011B000E90D60E087FD0FC020E030E04FE753E429
:1011C000C701B6010E940210682D181624F0C7014D
:1011D000B6010E94D30FE4E0F1E06083D5CF20E0B8
:1011E00030E0A901C701B6010E94E90D60E087FD6A
:1011F0000FC020E030E040E351E4C701B6010E9497
:101200000210692D181624F0C701B6010E94D30FF1
:1012100060930C01B9CF20E030E0A901C701B6010D
:101220000E94E90D00E010E087FD18C00091170151
:101230001091180101501109B80190E080E00E945E
:10124000EE0D9B01AC01C701B6010E9402101816F9
:101250002CF0C701B6010E94D30F8B0110930B0134
:1012600000930A0191CF20E030E040E85FE3C7013E
:10127000B6010E94E90D31E020E087FD12C020E0B8
:1012800030E040E054E4C701B6010E94021030E0B3
:1012900022E0181634F0C701B6010E94D30F362F92
:1012A000272F309317012093180140910A01509184
:1012B0000B0181E090E04115510531F0832F922F11
:1012C0004817590708F4CA0190930B0180930A014B
:1012D0005BCF20E030E0A901C701B6010E94E90D13
:1012E00060E087FD0FC020E030E040E85FE3C70129
:1012F000B6010E94021061E0181624F0C701B60181
:101300000E94D30F609305013FCFC701B6010E9431
:10131000D30F60930F0138CF20E030E0A901C7015F
:10132000B6010E94E90D60E087FD0FC020E030E0CB
:1013300040E450E4C701B6010E9402106A2D18165D
:1013400024F0C701B6010E94D30F60930D011CCF9A
:1013500020E030E0A901C701B6010E94E90D60E07C
:1013600087FD0FC020E030E040EA50E4C701B6013D
:101370000E9402106B2D181624F0C701B6010E94BE
:10138000D30F60930E0100CF20916607223210F038
:1013900010926607E0916607AE2FB0E0A959B84FEA
:1013A0008C93EF5FE0936607F0E0E959F84F108205
:1013B000A2CEE1E0E093A4070E94C6031092A40726
:1013C00081E07FCE1F920F920FB60F9211242F93C0
:1013D0003F938F939F93AF93BF93809147089091D2
:1013E0004808A0914908B0914A083091460820E485
:1013F000230F2D3728F023EC230F0196A11DB11DDB
:10140000209346088093470890934808A093490882
:10141000B0934A088091420890914308A0914408F3
:10142000B09145080196A11DB11D8093420890938B
:101430004308A0934408B0934508BF91AF919F9192
:101440008F913F912F910F900FBE0F901F90189585
:101450001F920F920FB60F9211242F933F934F9329
:101460005F936F937F938F939F93AF93BF93EF930C
:10147000FF93E091B507F091B6078081E091BB073B
:10148000F091BC0782FD1DC090818091BE078F5FE7
:101490008F732091BF07821741F0E091BE07F0E003
:1014A000EB55F84F958F8093BE078091A407882352
:1014B00051F01092A40761E070E08DE897E00E947F
:1014C000570C8081F2CFFF91EF91BF91AF919F9127
:1014D0008F917F916F915F914F913F912F910F90DD
:1014E0000FBE0F901F9018951F920F920FB60F927C
:1014F00011242F933F934F935F936F937F938F9319
:101500009F93AF93BF93EF93FF938091620190916C
:101510006301009731F461E070E08BE491E00E9498
:10152000570C01979093630180936201FF91EF91B3
:10153000BF91AF919F918F917F916F915F914F91EB
:101540003F912F910F900FBE0F901F9018951F92F3
:101550000F920FB60F9211248F938091A1008F5F8D
:101560008093A1008091A100863E11F41092A10009
:101570008F910F900FBE0F901F9018951F920F9292
:101580000FB60F9211242F933F934F935F936F9356
:101590007F938F939F93AF93BF93EF93FF9385EACE
:1015A00097E00E94B101FF91EF91BF91AF919F91A0
:1015B0008F917F916F915F914F913F912F910F90FC
:1015C0000FBE0F901F9018951F920F920FB60F929B
:1015D00011242F938F939F93EF93FF93E091B5077F
:1015E000F091B6078081E091BB07F091BC0782FDC6
:1015F0001BC090818091BE078F5F8F732091BF07C2
:10160000821741F0E091BE07F0E0EB55F84F958F5F
:101610008093BE07FF91EF919F918F912F910F9033
:101620000FBE0F901F9018958081F4CFE2EFF0E08D
:10163000808180618EBB80E880839EB39083E1E6E9
:10164000F0E0808391E0908380831082789484B569
:10165000826084BD84B5816084BD85B5826085BDAE
:1016600085B5816085BDCEE6D0E0888181608883C4
:10167000E1E8F0E010828081826080838081816077
:101680008083E0E8F0E080818160808301EB10E0FE
:10169000F80180818460808380EBE82EF12CF701D3
:1016A000808181608083E1E9F0E0808182608083D5
:1016B000808181608083E0E9F0E0808181608083C7
:1016C000EAE7F0E080818460808380818D7F808381
:1016D00080818E7F80838081806880831092C100AA
:1016E00061E08DE00E943902E5EAF7E0A089B18966
:1016F00082E08C93A485B5851C92A685B78582E28D
:101700008C93108EA489B58986E08C93A289B389C5
:101710008C9180618C93A289B3898C9188608C9321
:10172000A289B3898C9180688C930288F389E02D1B
:1017300080818F7D808388818E7F8883EFE6F0E0D3
:1017400080818E7F8083C0E7D0E088818E7F888310
:10175000E1E7F0E080818E7F8083EEE7F0E080813A
:101760008160808360E08EE00E94390260E088E062
:101770000E94390260E089E00E94390260E08AE05C
:101780000E94390260E08BE00E94390260E08CE048
:101790000E94390260E085E00E94390260E086E044
:1017A0000E94390260E087E00E94390260E080E137
:1017B0000E94390260E081E10E94390260E082E12A
:1017C0000E94390260E083E10E94390263E084E014
:1017D0000E9439028CE08093A000F7011082F8018A
:1017E00010821092B2008FEF8093B300F7018081D6
:1017F00082608083F801808181608083888182603B
:10180000888388818D7F88830E945308E5EAF7E00A
:101810001382128288EE93E0A0E0B0E08483958387
:10182000A683B7838DE191E09183808385EC90E07E
:101830009587848784EC90E09787868780EC90E09A
:10184000918B808B81EC90E0938B828B82EC90E08B
:10185000958B848B86EC90E0978B868B118E128E05
:10186000138E148E0895662777270C94780CDC016C
:101870002D923D924D925D926D927D928D929D92B0
:10188000AD92BD92CD92DD92ED92FD920D931D939E
:10189000CD93DD93FF91EF918DB78D938EB78D939F
:1018A0008FB78D93ED93FD93882799270994DC01D9
:1018B000CB0181309105811D2D903D904D905D9023
:1018C0006D907D908D909D90AD90BD90CD90DD9070
:1018D000ED90FD900D911D91CD91DD91ED91FD91DA
:1018E0000D90F894FEBF0FBEEDBFED91FD910994F0
:1018F000B0E0A0E0EEE7FCE00C94210F5C017B017E
:101900006115710519F0DB018D939C9385010F5FC3
:101910001F4FF501D0818D2F90E00E94C80D6C0102
:10192000892BB9F5DD32B9F50F5F1F4FD50111963F
:10193000DC91C1E05801F1E0AF1AB10843E050E09A
:1019400060E870E0C5010E94D10D892B69F568013E
:1019500082E0C80ED11C45E050E06BE770E0C601A4
:101960000E94D10D892B21F4680197E0C90ED11C8A
:10197000E114F10419F0D701CD92DC9260E070E03F
:1019800080E89FEFC111FFC060E070E080E89FE752
:10199000FAC05801BBCFDB3229F485010E5F1F4F1F
:1019A000F501D181C0E0C6CF43E050E068E770E0C8
:1019B000C5010E94D10D892BE9F0F80110E000E08B
:1019C00020E030E0A9015F01B0ED8B2E8D0E89E0A3
:1019D0008815C8F19C2E689491F88C2F8870C2FFEE
:1019E00016C0811102C00F5F1F4F3196D501DC91E7
:1019F000C92DE9CFE114F10429F00E5F1F4FF70163
:101A00001183008360E070E080EC9FE7BCC0882316
:101A100011F001501109A5E0B0E00E94100F9B01E8
:101A2000AC01220F331F441F551F280D311D411DCE
:101A3000511D283999E93907490799E15907A8F251
:101A4000C6609C2ED2CFAEEF8A1206C0C3FD3CC04A
:101A50009C2E689493F8C9CFDF7DD534A9F5808199
:101A60008D3239F4C061DF011296818162E070E04D
:101A700006C0DF018B32C1F3119661E070E0805344
:101A80005D01A61AB70A8A30F8F4E0E8CE16ECE059
:101A9000DE065CF4B601660F771F660F771FC60E71
:101AA000D71ECC0CDD1CC80ED11C5D01FFEFAF1A98
:101AB000BF0A8C9180538A30A8F1C4FF03C0D1942F
:101AC000C194D1080C0D1D1DC1FF09C0E114F10422
:101AD00031F081E0A81AB108D701AD92BC92CA01D9
:101AE000B9010E94EE0DC370C33009F490584B0148
:101AF0005C0120E030E0A9010E94E90D882309F48F
:101B000040C0CFEAD0E017FF05C01195019511093B
:101B1000C7E9D0E06E01B8E1CB1AD10880E2E82E27
:101B2000F12C0FC0D501B1CFFE0125913591459122
:101B300054910E191F09C501B4010E944F0E4B01AB
:101B40005C01D501C4010E151F0574F72497F594A7
:101B5000E794CC16DD06A9F78A2F880F8B2F881FF4
:101B60008F3F49F020E030E0A901C501B4010E9497
:101B7000E90D811106C082E290E0909350088093B5
:101B80004F08C501B401CDB7DEB7ECE00C943D0FB2
:101B900091110C94BC0E803219F089508550C8F711
:101BA0000895FB01DC014150504088F08D91813453
:101BB0001CF08B350CF4805E659161341CF06B3544
:101BC0000CF4605E861B611171F3990B0895881BFC
:101BD000FCCF0E942B0E08F481E00895E89409C020
:101BE00097FB3EF490958095709561957F4F8F4F50
:101BF0009F4F9923A9F0F92F96E9BB279395F69566
:101C0000879577956795B795F111F8CFFAF4BB0FE3
:101C100011F460FF1BC06F5F7F4F8F4F9F4F16C047
:101C2000882311F096E911C0772321F09EE8872FD1
:101C3000762F05C0662371F096E8862F70E060E08D
:101C40002AF09A95660F771F881FDAF7880F969506
:101C5000879597F90895990F0008550FAA0BE0E8AA
:101C6000FEEF16161706E807F907C0F0121613065E
:101C7000E407F50798F0621B730B840B950B39F49E
:101C80000A2661F0232B242B252B21F408950A2604
:101C900009F4A140A6958FEF811D811D08950E9432
:101CA000620E0C94D60E0E94C80E38F00E94CF0E21
:101CB00020F0952311F00C94BF0E0C94C50E112446
:101CC0000C940A0F0E94E70E70F3959FC1F3950FD5
:101CD00050E0551F629FF001729FBB27F00DB11DB0
:101CE000639FAA27F00DB11DAA1F649F6627B00D40
:101CF000A11D661F829F2227B00DA11D621F739F29
:101D0000B00DA11D621F839FA00D611D221F749F36
:101D10003327A00D611D231F849F600D211D822F7D
:101D2000762F6A2F11249F5750409AF0F1F08823A4
:101D30004AF0EE0FFF1FBB1F661F771F881F9150D1
:101D40005040A9F79E3F510580F00C94BF0E0C94B3
:101D50000A0F5F3FE4F3983ED4F386957795679535
:101D6000B795F795E7959F5FC1F7FE2B880F911DFB
:101D70009695879597F9089599278827089597F953
:101D80009F6780E870E060E008959FEF80EC089521
:101D900000240A941616170618060906089500244A
:101DA0000A9412161306140605060895092E0394C4
:101DB000000C11F4882352F0BB0F40F4BF2B11F438
:101DC00060FF04C06F5F7F4F8F4F9F4F089557FD97
:101DD0009058440F551F59F05F3F71F04795880F99
:101DE00097FB991F61F09F3F79F087950895121630
:101DF00013061406551FF2CF4695F1DF08C01616DC
:101E000017061806991FF1CF86957105610508948C
:101E10000895E894BB2766277727CB0197F90895A3
:101E20000E94520FA59F900DB49F900DA49F800D0E
:101E3000911D112408952F923F924F925F926F92BD
:101E40007F928F929F92AF92BF92CF92DF92EF924A
:101E5000FF920F931F93CF93DF93CDB7DEB7CA1BCB
:101E6000DB0B0FB6F894DEBF0FBECDBF09942A88F6
:101E7000398848885F846E847D848C849B84AA849E
:101E8000B984C884DF80EE80FD800C811B81AA812B
:101E9000B981CE0FD11D0FB6F894DEBF0FBECDBFF6
:101EA000ED010895A29FB001B39FC001A39F700DE3
:101EB000811D1124911DB29F700D811D1124911D52
:101EC00008950E94750F0C94D60E0E94CF0E58F004
:101ED0000E94C80E40F029F45F3F29F00C94BF0E19
:101EE00051110C940A0F0C94C50E0E94E70E68F372
:101EF0009923B1F3552391F3951B550BBB27AA27C3
:101F000062177307840738F09F5F5F4F220F331FFC
:101F1000441FAA1FA9F335D00E2E3AF0E0E832D0C4
:101F200091505040E695001CCAF72BD0FE2F29D0C7
:101F3000660F771F881FBB1F261737074807AB0799
:101F4000B0E809F0BB0B802DBF01FF2793585F4F0E
:101F50003AF09E3F510578F00C94BF0E0C940A0F96
:101F60005F3FE4F3983ED4F3869577956795B795F0
:101F7000F7959F5FC9F7880F911D9695879597F9FB
:101F80000895E1E0660F771F881FBB1F6217730774
:101F90008407BA0720F0621B730B840BBA0BEE1F89
:101FA00088F7E09508950E94EF0E88F09F5798F00B
:101FB000B92F9927B751B0F0E1F0660F771F881F4E
:101FC000991F1AF0BA95C9F714C0B13091F00E9468
:101FD000090FB1E008950C94090F672F782F882717
:101FE000B85F39F0B93FCCF3869577956795B3958F
:101FF000D9F73EF490958095709561957F4F8F4FFE
:102000009F4F08950E942B0E08F48FEF0895EE0F56
:0E201000FF1F0590F491E02D0994F894FFCF86
:10201E000001FFFD8001A48C38360000020000276D
:10202E0001000064000002000200000000D2013333
:10203E00016001190291016F0183010008000E0079
:10204E0000010802080308010E0100020E0200033F
:04205E000E0300006D
:00000001FF
