:100000000C9498000C94C0000C94C0000C94E30273
:100010000C94E3020C94E3020C94C0000C94C00016
:100020000C94C0000C94C0000C94C0000C94C00050
:100030000C94C0000C94C0000C94C0000C94C00040
:100040000C949D020C94C0000C94C0000C946103AD
:100050000C94C0000C94C0000C94C0000C94C00020
:100060000C94C0000C94C0000C9400000C94E302AB
:100070000C9400000C9400004E414E494E495459D6
:10008000494E46CDCCCC3D0AD7233C17B7D1387763
:10009000CC2B329595E6241FB14F0A000020410079
:1000A00000C84200401C4620BCBE4CCA1B0E5AAEC3
:1000B000C59D74000000002300260029002C0000CC
:1000C00000000850020100000304070000000000C7
:1000D000000000000000000000250028002B002E7A
:1000E0000000000000240027002A002D0001020467
:1000F00008102040800102040810200102040810AA
:1001000020020801041020404000006B6C6D7374E5
:1001100004040404040404040202020202020303AD
:10012000030303030505050505050503A2058B0665
:1001300011241FBECFEFD8E0DEBFCDBF22E0ACE37D
:10014000B1E001C01D92AB36B207E1F711E0A0E0CB
:10015000B1E0E8E3F4E102C005900D92AC33B107E1
:10016000D9F710E0C7E9D0E004C02197FE010E9452
:10017000E309C639D107C9F70E941A040C940F0A83
:100180000C940000E82FF0E0EE0FFF1FEC5DFE4F37
:1001900080819181906690937C0092EE90937A009A
:1001A00010927B0092E090937D0091E09093AD00DF
:1001B00020E2829FC001112488698093DC000895A9
:1001C000AF92BF92CF92DF92EF92FF920F931F9365
:1001D000CF93DF936C017B018B01040F151FEB01A3
:1001E0005E01AE18BF08C017D10759F06991D6015A
:1001F000ED91FC910190F081E02DC6010995892BCC
:1002000079F7C501DF91CF911F910F91FF90EF908A
:10021000DF90CF90BF90AF900895FC01538D448D37
:10022000252F30E0842F90E0821B930B541710F0A1
:10023000CF96089501970895FC01918D828D9817AE
:1002400061F0A28DAE0FBF2FB11D5D968C91928D86
:100250009F5F9F73928F90E008958FEF9FEF0895B7
:10026000FC01918D828D981731F0828DE80FF11D80
:10027000858D90E008958FEF9FEF0895FC01918D9B
:10028000228D892F90E0805C9F4F821B91098F7394
:10029000992708958CE391E00E943E0121E0892B8B
:1002A00009F420E0822F089580E090E0892B29F066
:1002B0000E944A0181110C9400000895FC01A48D54
:1002C000A80FB92FB11DA35ABF4F2C91848D90E078
:1002D00001968F739927848FA689B7892C93A0895B
:1002E000B1898C9180648C93938D848D981306C012
:1002F0000288F389E02D80818F7D80830895EF92BD
:10030000FF920F931F93CF93DF93EC0181E0888FCF
:100310009B8D8C8D981316C0E889F989808185FFA3
:1003200011C0EE89FF896083E889F9898081806442
:10033000808381E090E0DF91CF911F910F91FF903A
:10034000EF900895F62E0B8D10E00F5F1F4F0F7387
:100350001127E02E8C8D8E110CC00FB607FCFACF42
:10036000E889F989808185FFF5CFCE010E945E0181
:10037000F1CFEB8DEC0FFD2FF11DE35AFF4FF08213
:100380000B8FEA89FB8980818062D2CFCF93DF9384
:10039000EC01888D8823B9F0AA89BB89E889F9899D
:1003A0008C9185FD03C0808186FD0DC00FB607FCD2
:1003B000F7CF8C9185FFF2CF808185FFEDCFCE0105
:1003C0000E945E01E9CFDF91CF91089520911B0239
:1003D00030911C022817390771F49091190280910D
:1003E0001A02981741F0E0911902F0E0E752FE4F2F
:1003F000808190E008958FEF9FEF08950895EF9228
:10040000FF920F931F93CF93DF93DC015C96ED90E7
:10041000FC905D97E114F10479F481E090E013968B
:100420009C938E93129790E080E0DF91CF911F9183
:100430000F91FF90EF9008955196ED91FC91529796
:1004400050968C915097982F90950FB75E962C915F
:100450005E97122F127021FD6095F8942081112370
:1004600049F1282B2083E70121970000E9F70000DC
:1004700028E0462F50E0308160FF1EC0382B3083CB
:10048000E70121970000E9F70000BA01759567952B
:10049000215079F7112391F08081892380830FBF48
:1004A0005C968D919C9101970000E9F7000081E036
:1004B00090E0BBCF2923D6CF3923E1CF9081892B80
:1004C000EDCF20911B0230911C022817390771F4DF
:1004D00080911A022091190290E0805C9F4F821B4C
:1004E000910960E470E00E94CF09089590E080E0F7
:1004F000089520911B0230911C0228173907B9F486
:100500009091190280911A02981789F0E0911902CE
:10051000F0E0E752FE4F80812091190230E02F5F1A
:100520003F4F2F7333272093190290E008958FEFE8
:100530009FEF089590E080E008951F920F920FB60C
:100540000F9211242F933F938F939F93AF93BF9359
:100550008091650290916602A0916702B091680255
:100560003091640220E4230F2D3728F023EC230F71
:100570000196A11DB11D20936402809365029093A2
:100580006602A0936702B093680280916002909126
:100590006102A0916202B09163020196A11DB11D9A
:1005A0008093600290936102A0936202B093630211
:1005B000BF91AF919F918F913F912F910F900FBE5F
:1005C0000F901F9018951F920F920FB60F92112443
:1005D0002F933F934F935F936F937F938F939F934B
:1005E000AF93BF93EF93FF93E0911B02F0911C0236
:1005F000309749F0A685B7858585968D91FF14C003
:100600009C918923A1F4FF91EF91BF91AF919F91AC
:100610008F917F916F915F914F913F912F910F90AB
:100620000FBE0F901F9018959C91892361F7A389A5
:10063000B4899C918589809589238C938689978933
:1006400001970000E9F70000608D718DA685B785E0
:10065000558538E020E0CB0101970000E9F7000064
:10066000822F90E095958795282F4C91452309F08E
:100670002068315081F7868D81FD209580911A0286
:1006800090E001968F739927309119023817A9F0DD
:10069000A0911A02B0E0A752BE4F2C9380931A0289
:1006A000828D938D01970000E9F70000A389B4893A
:1006B0008C919589892B8C93A6CF868D8160868FAE
:1006C000EFCF1F920F920FB60F9211242F933F93EB
:1006D0004F935F936F937F938F939F93AF93BF934A
:1006E000EF93FF938CE391E00E945E01FF91EF9105
:1006F000BF91AF919F918F917F916F915F914F913A
:100700003F912F910F900FBE0F901F9018951F9241
:100710000F920FB60F9211242F938F939F93EF9305
:10072000FF93E0914C01F0914D018081E0915201E5
:10073000F091530182FD1BC09081809155018F5F24
:100740008F7320915601821741F0E0915501F0E03E
:10075000E45CFE4F958F80935501FF91EF919F913F
:100760008F912F910F900FBE0F901F901895808141
:10077000F4CF90E0FC01E154FF4F2491FC01E351E0
:10078000FF4F3491805F9E4FFC018491882361F17B
:100790002223C9F021502B30B0F4E22FF0E0ED52CB
:1007A000FC4F0C94E309F903FD03DE03F503E303B7
:1007B000E303000406040A0410041404909180006A
:1007C0009F7790938000E82FF0E0EE0FFF1FEB5231
:1007D000FF4FA591B4918FB7F894EC91611128C0A7
:1007E00030953E233C938FBF0895909180009F7D6C
:1007F000E8CF94B59F7794BDE6CF94B59F7DFBCFAE
:100800009091B0009F779093B000DDCF9091B000B1
:100810009F7DF9CF909190009F7790939000D3CFD8
:10082000909190009F7DF9CF90919000977FF5CFA8
:100830003E2BD8CF8091F20080618EBB80E8809300
:10084000F2009EB39093F2008093610091E0909348
:1008500061008093610010926100789484B5826099
:1008600084BD84B5816084BD85B5826085BD85B554
:10087000816085BD80916E00816080936E001092D2
:10088000810080918100826080938100809181004D
:1008900081608093810080918000816080938000DE
:1008A0008091B10084608093B1008091B00081603C
:1008B0008093B0008091910082608093910080913C
:1008C000910081608093910080919000816080937D
:1008D000900080917A00846080937A0080917A0001
:1008E0008D7F80937A0080917A008E7F80937A004A
:1008F00080917A00806880937A001092C100809184
:100900007E00816080937E00EBEFF0E02491EEE1C9
:10091000F1E084918823C1F090E0880F991FFC01D9
:10092000EF51FF4FC591D491FC01EB52FF4FA591C0
:10093000B4919FB7F8948881E22FE0958E23888345
:100940008C91E823EC939FBF84E00E94C2008FE16A
:1009500084B980EE8AB910925C0210925B02109208
:100960005A0210925902109258021092570242E411
:1009700050E050935E0240935D0280914D028832B8
:1009800008F040C025E130E0309358022093570230
:1009900050935A02409359022BE230E030935C02AC
:1009A00020935B0290E0FC01E05FFE4FA491209158
:1009B0006800A250BB0B61E070E0EB0102C0CC0FFD
:1009C000DD1FAA95E2F72C2B20936800E491F0E05C
:1009D000E75FFE4F249130E030935502209354029C
:1009E00083519F4FFC01849190E00E94E90901C06E
:1009F000660F8A95EAF760935602CA0101970000D4
:100A0000E9F7000080915B0290915C02892B49F12B
:100A1000E0911B02F0911C0282E0E134F80709F139
:100A2000309739F0A389B4899C9185898095892371
:100A30008C9380915F028E7F80935F0210921A02E6
:100A40001092190281E492E090931C0280931B02A1
:100A5000E0915402F0915502808190915602892BC9
:100A6000808380916E008E7F80936E00C0E0D0E026
:100A700081E492E00E946102892B09F447C081E47D
:100A800092E00E9479028E33910559F510911E0271
:100A90008FE192E00E94A7066B017C0110921D027B
:100AA00010921E02113421F720E030E0A9010E94CB
:100AB0001C0887FD12C020E030E040E351E4C7018C
:100AC000B6010E94CA09181654F0C701B6010E9467
:100AD0009409862F0E94C200CBCF80E0FBCF8BE031
:100AE000F9CF20911D02223210F010921D02E091E8
:100AF0001D02AE2FB0E0A25EBD4F8C93EF5FE0937E
:100B00001D02F0E0E25EFD4F1082B2CF88EE93E06E
:100B100020917A0024FFFCCF20917A00206120935D
:100B20007A00209179002BB925B9019789F7209790
:100B300009F49ECF0E944A01882309F499CF0E94AC
:100B4000000096CF0F931F93CF93DF9310923F0136
:100B500010923E0188EE93E0A0E0B0E08093400167
:100B600090934101A0934201B093430124E031E00E
:100B700030933D0120933C0125EC30E03093490156
:100B80002093480124EC30E030934B0120934A013C
:100B900020EC30E030934D0120934C0121EC30E00B
:100BA00030934F0120934E0122EC30E030935101FD
:100BB0002093500126EC30E03093530120935201F2
:100BC000109255011092560110925701109258013F
:100BD0001092440210924302809345029093460281
:100BE000A0934702B093480286E191E090934202BD
:100BF00080934102109258021092570210925A02AA
:100C00001092590210925C0210925B0210925E02E6
:100C100010925D0260915F026E7F6D7F60935F0254
:100C20006695617081E0682782E00E94B9034FEE0B
:100C300050E0FA01649182E191E0FC0124912223C9
:100C400099F030E0220F331FF901EF51FF4FA591CA
:100C5000B491F901EB52FF4F259134912FB7F894DD
:100C60003C91632B6C932FBFFA0144914093510246
:100C7000FC018491E82FF0E0EE0FFF1FEB52FF4FD5
:100C800085919491909353028093520200EF10E06B
:100C9000F8012491C3E1D1E0FE0184918823C9F0D9
:100CA00090E0880F991FFC01EF51FF4FA591B4917F
:100CB000FC01EB52FF4F459154913FB7F8949C9142
:100CC000822F809598239C93FA01908189238083B9
:100CD0003FBF80915F0281FD04C061E083E00E941C
:100CE000B90383E080934D02F801049100934E0212
:100CF000FE01C491EC2FF0E0EE0FFF1FED54FF4F0B
:100D0000859194919093500280934F02DF91CF91FF
:100D10001F910F91089586E191E090934202809394
:100D2000410280911B0290911C028154924071F407
:100D3000E0915402F0915502908180915602809585
:100D40008923808310921C0210921B02089566274B
:100D500077270C94AB06B0E0A0E0E1EBF6E00C9452
:100D600054095C017B016115710519F0DB018D935C
:100D70009C9385010F5F1F4FF501D0818D2F90E06F
:100D80000E94FB076C01892BB9F5DD32B9F50F5FC5
:100D90001F4FD5011196DC91C1E05801F1E0AF1A67
:100DA000B10843E050E060E870E0C5010E9404082B
:100DB000892B69F5680182E0C80ED11C45E050E03E
:100DC0006BE770E0C6010E940408892B21F46801DA
:100DD00097E0C90ED11CE114F10419F0D701CD92AE
:100DE000DC9260E070E080E89FEFC111FFC060E03E
:100DF00070E080E89FE7FAC05801BBCFDB3229F4EE
:100E000085010E5F1F4FF501D181C0E0C6CF43E0E1
:100E100050E068E770E0C5010E940408892BE9F002
:100E2000F80110E000E020E030E0A9015F01B0ED42
:100E30008B2E8D0E89E08815C8F19C2E689491F850
:100E40008C2F8870C2FF16C0811102C00F5F1F4F28
:100E50003196D501DC91C92DE9CFE114F10429F0D7
:100E60000E5F1F4FF7011183008360E070E080EC9C
:100E70009FE7BCC0882311F001501109A5E0B0E044
:100E80000E9443099B01AC01220F331F441F551FD1
:100E9000280D311D411D511D283999E93907490790
:100EA00099E15907A8F2C6609C2ED2CFAEEF8A1204
:100EB00006C0C3FD3CC09C2E689493F8C9CFDF7D6B
:100EC000D534A9F580818D3239F4C061DF011296E5
:100ED000818162E070E006C0DF018B32C1F31196C0
:100EE00061E070E080535D01A61AB70A8A30F8F419
:100EF000E0E8CE16ECE0DE065CF4B601660F771F84
:100F0000660F771FC60ED71ECC0CDD1CC80ED11C79
:100F10005D01FFEFAF1ABF0A8C9180538A30A8F1B0
:100F2000C4FF03C0D194C194D1080C0D1D1DC1FF95
:100F300009C0E114F10431F081E0A81AB108D70129
:100F4000AD92BC92CA01B9010E942108C370C3309E
:100F500009F490584B015C0120E030E0A9010E94A7
:100F60001C08882309F440C0CFEAD0E017FF05C071
:100F7000119501951109C7E9D0E06E01B8E1CB1ACE
:100F8000D10880E2E82EF12C0FC0D501B1CFFE01CF
:100F900025913591459154910E191F09C501B40150
:100FA0000E9482084B015C01D501C4010E151F058A
:100FB00074F72497F594E794CC16DD06A9F78A2FE9
:100FC000880F8B2F881F8F3F49F020E030E0A90168
:100FD000C501B4010E941C08811106C082E290E0A4
:100FE00090936A0280936902C501B401CDB7DEB760
:100FF000ECE00C94700991110C94EF08803219F018
:1010000089508550C8F70895FB01DC0141505040DC
:1010100088F08D9181341CF08B350CF4805E6591E5
:1010200061341CF06B350CF4605E861B611171F34A
:10103000990B0895881BFCCF0E945E0808F481E09C
:101040000895E89409C097FB3EF4909580957095BB
:1010500061957F4F8F4F9F4F9923A9F0F92F96E904
:10106000BB279395F695879577956795B795F11179
:10107000F8CFFAF4BB0F11F460FF1BC06F5F7F4F16
:101080008F4F9F4F16C0882311F096E911C0772328
:1010900021F09EE8872F762F05C0662371F096E831
:1010A000862F70E060E02AF09A95660F771F881F00
:1010B000DAF7880F9695879597F90895990F0008A4
:1010C000550FAA0BE0E8FEEF16161706E807F9071A
:1010D000C0F012161306E407F50798F0621B730BB5
:1010E000840B950B39F40A2661F0232B242B252B36
:1010F00021F408950A2609F4A140A6958FEF811DD9
:10110000811D08950E9495080C9409090E94FB080E
:1011100038F00E94020920F0952311F00C94F20897
:101120000C94F80811240C943D090E941A0970F3DC
:10113000959FC1F3950F50E0551F629FF001729F7C
:10114000BB27F00DB11D639FAA27F00DB11DAA1F8B
:10115000649F6627B00DA11D661F829F2227B00DD8
:10116000A11D621F739FB00DA11D621F839FA00D63
:10117000611D221F749F3327A00D611D231F849FB3
:10118000600D211D822F762F6A2F11249F5750400A
:101190009AF0F1F088234AF0EE0FFF1FBB1F661F85
:1011A000771F881F91505040A9F79E3F510580F04E
:1011B0000C94F2080C943D095F3FE4F3983ED4F39D
:1011C000869577956795B795F795E7959F5FC1F7F2
:1011D000FE2B880F911D9695879597F9089599276D
:1011E0008827089597F99F6780E870E060E0089588
:1011F0009FEF80EC089500240A941616170618062F
:101200000906089500240A9412161306140605060A
:101210000895092E0394000C11F4882352F0BB0F9B
:1012200040F4BF2B11F460FF04C06F5F7F4F8F4FFE
:101230009F4F089557FD9058440F551F59F05F3F39
:1012400071F04795880F97FB991F61F09F3F79F0E8
:1012500087950895121613061406551FF2CF46956A
:10126000F1DF08C0161617061806991FF1CF8695EC
:101270007105610508940895E894BB2766277727D0
:10128000CB0197F908950E948509A59F900DB49F01
:10129000900DA49F800D911D112408952F923F92CF
:1012A0004F925F926F927F928F929F92AF92BF9276
:1012B000CF92DF92EF92FF920F931F93CF93DF9322
:1012C000CDB7DEB7CA1BDB0B0FB6F894DEBF0FBE7F
:1012D000CDBF09942A88398848885F846E847D84CC
:1012E0008C849B84AA84B984C884DF80EE80FD80CE
:1012F0000C811B81AA81B981CE0FD11D0FB6F89444
:10130000DEBF0FBECDBFED010895A29FB001B39F18
:10131000C001A39F700D811D1124911DB29F700DFE
:10132000811D1124911D08950E949B096894B1119B
:101330000C943D0908950E94220988F09F5798F067
:10134000B92F9927B751B0F0E1F0660F771F881FCA
:10135000991F1AF0BA95C9F714C0B13091F00E94E4
:101360003C09B1E008950C943C09672F782F882739
:10137000B85F39F0B93FCCF3869577956795B3950B
:10138000D9F73EF490958095709561957F4F8F4F7A
:101390009F4F08950E945E0808F48FEF089597FB11
:1013A000072E16F4009407D077FD09D00E94ED09AE
:1013B00007FC05D03EF4909581959F4F0895709558
:1013C00061957F4F0895EE0FFF1F0590F491E02D7A
:1013D00009940E94010A8A950895AA1BBB1B51E13A
:1013E00007C0AA1FBB1FA617B70710F0A61BB70B95
:1013F000881F991F5A95A9F780959095BC01CD013A
:101400000895AA2781110C94090AA8E0892BD9F71D
:101410000895A3958695E8F78A2F9927089510E0F7
:10142000C7E9D0E004C0FE010E94E3092196C83953
:08143000D107C9F7F894FFCFC2
:10143800000000007F01E0000D01C6013E011C0113
:10144800300100000000FF01E0009A02FE01610285
:101458007902E6010008000E0000010802080308EE
:0C146800010E0100020E0200030E030042
:00000001FF
