:100000000C948E000C94B6000C94B6000C94B600C0
:100010000C94B6000C94B6000C94B6000C949F0A95
:100020000C94B6000C94B6000C94B6000C946C0AB8
:100030000C94B6000C94B6000C94B6000C94B60068
:100040000C94D7090C94B6000C941D0A0C94B60AB3
:100050000C94B6000C94B6000C94B6000C94B60048
:100060000C94B6000C94B6000C9400000C940000A4
:100070000C9400000C9400004E414E494E495459D6
:10008000494E46CDCCCC3D0AD7233C17B7D1387763
:10009000CC2B329595E6241FB14F0A000020410079
:1000A00000C84200401C4620BCBE4CCA1B0E5AAEC3
:1000B000C59D7400000000240027002A002D0000C8
:1000C000000000250028002B002E00040404040476
:1000D00004040402020202020203030303030305F1
:1000E00005050505050503010204081020408001EF
:1000F0000204081020010204081020020801041064
:1001000020404000000008500201000003040700E6
:1001100000000000000000000000FE0B11241FBEC4
:10012000CFEFD8E0DEBFCDBF11E0A0E0B1E0E8E95D
:10013000F1E202C005900D92A434B107D9F728E08E
:10014000A4E4B1E001C01D92AF34B207E1F710E0C2
:10015000CEE8D0E004C02197FE010E94C410CD3843
:10016000D107C9F70E940E0B0C94CA100C94000022
:10017000E82FF0E0EE0FFF1FE55DFE4F80819181DB
:10018000906690937C0092EE90937A0010927B00A0
:1001900092E090937D0091E09093AD0020E2829FE9
:1001A000C001112488698093DC000895E0E1F1E04A
:1001B0002491E4EFF0E03491E8EDF0E0949199239C
:1001C00061F12223C9F021502B30B0F4E22FF0E08E
:1001D000E451FF4F0C94C41012011601F7000E01F8
:1001E000FC00FC0019011F01230129012D012091B0
:1001F00080002F7720938000E92FF0E0EE0FFF1FA3
:10020000E154FF4FA591B4919FB7F894EC918111FF
:1002100028C030953E233C939FBF089520918000D5
:100220002F7DE8CF24B52F7724BDE6CF24B52F7DD1
:10023000FBCF2091B0002F772093B000DDCF20912D
:10024000B0002F7DF9CF209190002F772093900060
:10025000D3CF209190002F7DF9CF20919000277F60
:10026000F5CF3E2BD8CFAF92BF92CF92DF92EF92D5
:10027000FF920F931F93CF93DF936C017B018B0150
:10028000040F151FEB015E01AE18BF08C017D107A0
:1002900059F06991D601ED91FC910190F081E02D2A
:1002A000C6010995892B79F7C501DF91CF911F917F
:1002B0000F91FF90EF90DF90CF90BF90AF90089597
:1002C000FC01538D448D252F30E0842F90E0821B5C
:1002D000930B541710F0CF96089501970895FC01E1
:1002E000918D828D981761F0A28DAE0FBF2FB11D39
:1002F0005D968C91928D9F5F9F73928F90E0089591
:100300008FEF9FEF0895FC01918D828D981731F04A
:10031000828DE80FF11D858D90E008958FEF9FEF9E
:100320000895FC01918D228D892F90E0805C9F4F74
:10033000821B91098F739927089583EA97E00E94A1
:10034000910121E0892B09F420E0822F089580E0BB
:1003500090E0892B29F00E949D0181110C940000EE
:100360000895FC01A48DA80FB92FB11DA35ABF4F4A
:100370002C91848D90E001968F739927848FA689A4
:10038000B7892C93A089B1898C9180648C93938DCB
:10039000848D981306C00288F389E02D80818F7DBB
:1003A00080830895EF92FF920F931F93CF93DF9373
:1003B000EC0181E0888F9B8D8C8D981316C0E889A5
:1003C000F989808185FF11C0EE89FF896083E88902
:1003D000F98980818064808381E090E0DF91CF9112
:1003E0001F910F91FF90EF900895F62E0B8D10E066
:1003F0000F5F1F4F0F731127E02E8C8D8E110CC0D5
:100400000FB607FCFACFE889F989808185FFF5CF1F
:10041000CE010E94B101F1CFEB8DEC0FFD2FF11D4C
:10042000E35AFF4FF0820B8FEA89FB89808180625B
:10043000D2CFCF93DF93EC01888D8823B9F0AA89BE
:10044000BB89E889F9898C9185FD03C0808186FD8F
:100450000DC00FB607FCF7CF8C9185FFF2CF8081DE
:1004600085FFEDCFCE010E94B101E9CFDF91CF91A1
:100470000895CF93DF93282F30E0F901E951FF4F22
:10048000949125533F4FF9012491633009F03CC00A
:10049000843029F43091A0003C603093A0002223E6
:1004A000C9F030E0220F331FF901ED54FF4FA59141
:1004B000B491F901E154FF4FC591D49161110DC080
:1004C0002FB7F8948C91909589238C9388819823E9
:1004D00098832FBFDF91CF910895623051F42FB7E9
:1004E000F8943C91892F809583238C93E8819E2BEF
:1004F000EFCF843011F4613069F78FB7F894EC9145
:100500009E2B9C938FBFE6CF843009F0C8CF33E099
:10051000C4CFEF92FF920F931F93CF93DF937C0191
:10052000C0916407D091650710E000E0809115014B
:100530009091160108171907F8F4F701EC0FFD1F49
:1005400060818091610790916207860F911D909361
:1005500062078093610783EA97E00E94D2012196A7
:1005600080911701909118018C179D0711F4D0E02C
:10057000C0E00F5F1F4FDACFDF91CF911F910F9136
:10058000FF90EF900895CF93C82F109262071092BA
:10059000610781E00E94D60045E150E064E071E02F
:1005A00083EA97E00E94330180916107909162078E
:1005B000E4E0F1E029E131E04191840F911D2E1733
:1005C0003F07D1F79093620780936107CC23C1F076
:1005D00080910F0180FF04C081E695E00E948902AE
:1005E00080910F0181FF04C081E693E00E9489029F
:1005F00080910F018C7321F081E691E00E948902C5
:1006000042E050E061E677E083EA97E00E94330140
:1006100044E050E060E071E083EA97E00E9433013B
:100620001092110183EA97E00E94190280E0CF91B5
:100630000C94D600109290001092910020E034E2C9
:1006400044EF5BE46091060170910701809108011D
:10065000909109010E94470E0E944F10DC01CB01CE
:100660008F3F2FEF9207A105B10568F421E0209399
:10067000910070934701609346010A97909345015A
:10068000809344011CC0883F2FEF920727E0A20708
:10069000B105D0F422E02093910053E0B695A795E0
:1006A000979587955A95D1F7909347018093460186
:1006B000BC0161507109709345016093440110922F
:1006C0009500109294000895803C2FEF92072FE33D
:1006D000A207B10578F423E02093910046E0B69597
:1006E000A795979587954A95D1F790934701809361
:1006F0004601C4CF81152FEF9207A207B10540F440
:1007000024E020939100892F9A2FAB2FBB27EDCFA8
:1007100081152CEF92072FEFA20723E0B20778F69E
:1007200025E0209391002AE0B695A79597958795A7
:100730002A95D1F7DACFCF93DF9300D0CDB7DEB7CC
:100740002091490830914A08CE01019621153105C2
:1007500059F48F5498409A83898389819A810F90A4
:100760000F90DF91CF910895821B930BE0914B087E
:10077000F0914C0830E020E0309751F02E5F3F4F71
:1007800040815181240F351F0280F381E02DF4CF89
:10079000820F931FE0CF4F925F927F928F929F9232
:1007A000AF92BF92CF92DF92EF92FF920F931F937F
:1007B000CF93DF93CDB7DEB704E011E0D8011996EF
:1007C0008C911997833009F098C0E3E6F7E08081B7
:1007D000882399F1108218968C910E94B8000E948B
:1007E0001A03F801228133814481558160E070E071
:1007F00080E89FE30E94DD0F20E030E040EF51E40D
:100800000E94DD0F0E944F10D80152967C936E9388
:100810005197672B31F481E090E052969C938E9330
:100820005197E4E0F1E08389948901972189328925
:100830008217930710F4928B818B609164077091FB
:1008400065074091150150911601E4E9F0E009E7D0
:1008500010E093E6A92E97E0B92E41155105C9F194
:1008600080914601909147012081318128173907F5
:10087000D8F3808191812091440130914501821B00
:10088000930B91838083D801CC9023B1D9B036B13A
:10089000D50111968D919C91DC01AF59BA4FCC9244
:1008A000DC01AF59BC4F7D012F71BD2DB07E2B2BCC
:1008B000D7012C93DC01AF59BE4F3C733C9301969A
:1008C0009170D50112969C938E93119741505109C6
:1008D000C4CF7093650760936407DF91CF911F9138
:1008E0000F91FF90EF90DF90CF90BF90AF909F90CF
:1008F0008F907F905F904F900895811157C088E44A
:1009000091E00E942F0C892B29F010928100109207
:100910001201E3CF0FE610E0F80110821092800080
:10092000E1E8F0E085E0808380818860808384E076
:10093000E82E81E0F82ED70153966D917C9190E0DE
:1009400080E00E94E60DF7012281338144815581C8
:100950000E94470E2AE037ED43E25CE30E945A0F03
:1009600020E034E244EF5BE40E94470E20E030E0F8
:1009700040E85AE30E94470E20E030E040E250E4B5
:100980000E94470E0E94C60F0E944F109093600174
:1009900080935F01709389006093880010928500B6
:1009A00010928400D8018C9182608C93E4E0F1E095
:1009B00003891489128B018BD284A180E680F78091
:1009C0008085B1E0BD1508F4B1C1C0809C2DE2E086
:1009D000CE1608F492E0BEEFBB2EB90E9C2DFDEFB3
:1009E000FC1508F49DEF72E0972E990E0150110945
:1009F0000E191F090E94B8000E941A031092950058
:100A000010929400E4E9F0E029E730E0A3E64A2EF2
:100A1000A7E05A2E41E0E41AF10880914601909136
:100A20004701AFEFEA16FA06A1F14081518148175C
:100A30005907D8F38081918140914401509145013B
:100A4000841B950B91838083D9017C9063B189B01D
:100A500076B1D20111968D919C91AC014F595A4FAC
:100A6000DA017C92AC014F595C4F6F71B82DB07EAA
:100A70006B2BDA016C93AC014F595E4F7C73DA013A
:100A80007C9301969170D20112969C938E9311974C
:100A9000C1CFE4E9F0E049E750E0AA2009F483C0BF
:100AA00063E6A62E67E0B62E80914601909147013D
:100AB0002081318128173907D8F3808191812091D5
:100AC000440130914501821B930B91838083DA01AD
:100AD000FC9023B189B12F71807E282B36B1D501CE
:100AE00011968D919C91BC016F597A4FDB01FC925C
:100AF000BC016F597C4FDB012C93BC016F597E4FB9
:100B00003C73DB013C9301969170D50112969C9346
:100B10008E931197D11001C02F2D291528F2E4E9E9
:100B2000F0E049E750E083E6A82E87E0B82E8091F8
:100B30004601909147012081318128173907D8F368
:100B4000808191812091440130914501821B930B5A
:100B500091838083DA01FC9023B189B12F71807E6B
:100B6000282B36B1D50111968D919C91BC016F59FE
:100B70007A4FDB01FC92BC016F597C4FDB012C9357
:100B8000BC016F597E4F3C73DB013C930196917021
:100B9000D50112969C938E931197D11001C02F2DE1
:100BA000C21628F282C033E6832E37E0932E80915E
:100BB0004601909147012081318128173907D8F3E8
:100BC000808191812091440130914501821B930BDA
:100BD00091838083DA01FC9023B189B12F71807EEB
:100BE000282B36B1D40111968D919C91BC016F597F
:100BF0007A4FDB01FC92BC016F597C4FDB012C93D7
:100C0000BC016F597E4F3C73DB013C9301969170A0
:100C1000D40112969C938E931197D11001C02F2D61
:100C2000B21628F2E4E9F0E049E750E023E6A22E0C
:100C300027E0B22E809146019091470120813181B9
:100C400028173907D8F38081918120914401309190
:100C50004501821B930B91838083DA01FC9023B1C1
:100C600089B12F71807E282B36B1D50111968D91D7
:100C70009C91BC016F597A4FDB01FC92BC016F590A
:100C80007C4FDB012C93BC016F597E4F3C73DB0121
:100C90003C9301969170D50112969C938E93119777
:100CA000D11001C02F2D2C1528F2E4E9F0E049E71E
:100CB00050E093E6C92E97E0D92E0150110908F4AF
:100CC000DDC1809146019091470120813181281733
:100CD0003907D8F3808191812091440130914501F9
:100CE000821B930B91838083DA017C9123B169B1DC
:100CF00036B1D60111968D919C91DC01AF59BA4F56
:100D00007C93DC01AF59BC4F2F71607E262B2C9356
:100D1000BC016F597E4F3C73DB013C93019691708F
:100D2000D60112969C938E931197C7CF0E191F0967
:100D30000E94B8000E941A0310929500109294002D
:100D4000E4E9F0E029E730E0B3E68B2EB7E09B2E34
:100D5000B1E0EB1AF10880914601909147014FEF05
:100D6000E416F406A1F14081518148175907D8F3E0
:100D7000808191814091440150914501841B950BE4
:100D800091838083D901BC9043B1C9B056B1D401DD
:100D900011968D919C91BC016F597A4FDB01BC92E9
:100DA000BC016F597C4F4F71BC2DB07E4B2BDB01CA
:100DB0004C93BC016F597E4F5C73DB015C930196D1
:100DC0009170D40112969C938E931197C1CF21E01C
:100DD00030E002C0220F331FDA94E2F7E4E9F0E0DA
:100DE00069E770E0AA2009F485C0A3E6AA2EA7E06F
:100DF000BA2E809146019091470140815181481758
:100E00005907D8F380819181409144015091450167
:100E1000841B950B91838083DB01CC9053B1D9B0B7
:100E200046B14C73D50111968D919C91DC01AF595F
:100E3000BA4FCC92DC01AF59BC4F7D015F71BD2D23
:100E4000B07E5B2BD7015C93DC01AF59BE4F4C9356
:100E500001969170D50112969C938E931197842FD1
:100E600090E082239323892B21F2E4E9F0E069E703
:100E700070E083E6A82E87E0B82E8091460190911D
:100E800047014081518148175907D8F380819181EA
:100E90004091440150914501841B950B91838083BF
:100EA000DB01CC9053B1D9B046B14C73D50111964A
:100EB0008D919C91DC01AF59BA4FCC92DC01AF59B6
:100EC000BC4F7D015F71BD2DB07E5B2BD7015C9364
:100ED000DC01AF59BE4F4C9301969170D50112962B
:100EE0009C938E931197842F90E082239323892BD8
:100EF00021F684C053E6A52E57E0B52E8091460119
:100F0000909147014081518148175907D8F380815A
:100F100091814091440150914501841B950B91832F
:100F20008083DB01CC9053B1D9B046B14C73D5016D
:100F300011968D919C91DC01AF59BA4FCC92DC0196
:100F4000AF59BC4F7D015F71BD2DB07E5B2BD701CA
:100F50005C93DC01AF59BE4F4C9301969170D50163
:100F600012969C938E931197842F90E08223932363
:100F7000892B21F6E4E9F0E069E770E043E6A42E6E
:100F800047E0B42E80914601909147014081518104
:100F900048175907D8F380819181409144015091BD
:100FA0004501841B950B91838083DB01CC9053B169
:100FB000D9B046B14C73D50111968D919C91DC014D
:100FC000AF59BA4FCC92DC01AF59BC4F7D015F7174
:100FD000BD2DB07E5B2BD7015C93DC01AF59BE4FBA
:100FE0004C9301969170D50112969C938E93119714
:100FF000842F90E082239323892B21F2E4E9F0E00F
:1010000049E750E093E6C92E97E0D92E0150110927
:10101000A8F18091460190914701208131812817E4
:101020003907D8F3808191812091440130914501A5
:10103000821B930B91838083DA017C9123B169B188
:1010400036B1D60111968D919C91DC01AF59BA4F02
:101050007C93DC01AF59BC4F2F71607E262B2C9303
:10106000BC016F597E4F3C73DB013C93019691703C
:10107000D60112969C938E931197C8CF10927A0046
:1010800081E0809312011092810027CCCF93DF93EF
:10109000CDB7DEB70E949B03909314018093130198
:1010A00080E00E94C30280E00E94C3028AE897E0C9
:1010B0000E942F0C892B19F0E1E8F0E0108280915A
:1010C000A207882309F46AC11092A20785E0B82E0E
:1010D00093E0A92E712C612C2BE0922E88248A9407
:1010E00083EA97E00E949101892B09F457C183EAB2
:1010F00097E00E946F018E33910509F03AC1E7E64F
:10110000F7E0108188E697E00E942B0C6B017C01D0
:101110000E949B0390931401809313011092660721
:10112000E7E6F7E0108210921001EFEBE10FE631F5
:1011300000F50E2E000CFF0BE056F74F0C94C41078
:10114000E4087A09BE085E09B908B908B908B908FF
:10115000B908B908B908B9088109B908B908000976
:10116000B908B60828099D09B908C70881E00E9496
:10117000C30281E0E3E6F7E08083B2CFC0920601CC
:10118000D0920701E0920801F0920901F2CF20E02D
:1011900030E0A901C701B6010E94E10D60E087FDC2
:1011A0000FC020E030E04FE753E4C701B6010E94D2
:1011B000BF10682D181624F0C701B6010E944F1009
:1011C000E4E0F1E06083D5CF20E030E0A901C70181
:1011D000B6010E94E10D60E087FD0FC020E030E025
:1011E00040E351E4C701B6010E94BF10692D1816F3
:1011F00024F0C701B6010E944F1060930C01B9CFD3
:1012000020E030E0A901C701B6010E94E10D072DE1
:10121000162D87FD18C0009117011091180101507B
:101220001109B80190E080E00E94E60D9B01AC013D
:10123000C701B6010E94BF1018162CF0C701B601F5
:101240000E944F108B0110930B0100930A0191CF64
:1012500020E030E040E85FE3C701B6010E94E10D05
:1012600031E020E087FD12C020E030E040E054E4AF
:10127000C701B6010E94BF1030E022E0181634F01A
:10128000C701B6010E944F10362F272F3093170148
:101290002093180140910A0150910B0181E090E0E8
:1012A0004115510531F0832F922F4817590708F443
:1012B000CA0190930B0180930A015BCF20E030E0DC
:1012C000A901C701B6010E94E10D60E087FD0FC0D2
:1012D00020E030E040E85FE3C701B6010E94BF10A4
:1012E00061E0181624F0C701B6010E944F10609308
:1012F00005013FCFC701B6010E944F1060930F0157
:1013000038CF20E030E0A901C701B6010E94E10D0D
:1013100060E087FD0FC020E030E040E450E4C7010A
:10132000B6010E94BF106A2D181624F0C701B6013D
:101330000E944F1060930D011CCF20E030E0A90106
:10134000C701B6010E94E10D60E087FD0FC020E0FB
:1013500030E040EA50E4C701B6010E94BF106B2D97
:10136000181624F0C701B6010E944F1060930E01B9
:1013700000CF20916607223210F010926607E091AC
:101380006607AE2FB0E0A959B84F8C93EF5FE0939A
:101390006607F0E0E959F84F1082A2CEE1E0E09351
:1013A000A1070E94CB031092A10781E07DCE1F927E
:1013B0000F920FB60F9211242F933F938F939F9309
:1013C000AF93BF938091450890914608A09147083C
:1013D000B09148083091440820E4230F2D3728F0BD
:1013E00023EC230F0196A11DB11D20934408809387
:1013F000450890934608A0934708B0934808809109
:10140000400890914108A0914208B091430801968C
:10141000A11DB11D8093400890934108A0934208FC
:10142000B0934308BF91AF919F918F913F912F91BE
:101430000F900FBE0F901F9018951F920F920FB62E
:101440000F9211242F933F934F935F936F937F934A
:101450008F939F93AF93BF93EF93FF93E091B30765
:10146000F091B4078081E091B907F091BA0782FD4D
:1014700020C090818091BC078F5F8F732091BD0742
:10148000821741F0E091BC07F0E0ED55F84F958FE1
:101490008093BC0781E08093A2078091A1078823F5
:1014A00051F01092A10761E070E08AE897E00E9495
:1014B0004F0C8081EFCFFF91EF91BF91AF919F9142
:1014C0008F917F916F915F914F913F912F910F90ED
:1014D0000FBE0F901F9018951F920F920FB60F928C
:1014E00011242F933F934F935F936F937F938F9329
:1014F0009F93AF93BF93EF93FF9380915F01909180
:101500006001009731F461E070E088E491E00E94AE
:101510004F0C01979093600180935F01FF91EF91D1
:10152000BF91AF919F918F917F916F915F914F91FB
:101530003F912F910F900FBE0F901F9018951F9203
:101540000F920FB60F9211248F938091A1008F5F9D
:101550008093A1008091A100863E11F41092A10019
:101560008F910F900FBE0F901F9018951F920F92A2
:101570000FB60F9211242F933F934F935F936F9366
:101580007F938F939F93AF93BF93EF93FF9383EAE0
:1015900097E00E94B101FF91EF91BF91AF919F91B0
:1015A0008F917F916F915F914F913F912F910F900C
:1015B0000FBE0F901F9018951F920F920FB60F92AB
:1015C00011242F938F939F93EF93FF93E091B30791
:1015D000F091B4078081E091B907F091BA0782FDDC
:1015E0001BC090818091BC078F5F8F732091BD07D6
:1015F000821741F0E091BC07F0E0ED55F84F958F70
:101600008093BC07FF91EF919F918F912F910F9045
:101610000FBE0F901F9018958081F4CFE2EFF0E09D
:10162000808180618EBB80E880839EB39083E1E6F9
:10163000F0E0808391E0908380831082789484B579
:10164000826084BD84B5816084BD85B5826085BDBE
:1016500085B5816085BDCEE6D0E0888181608883D4
:10166000E1E8F0E010828081826080838081816087
:101670008083E0E8F0E080818160808301EB10E00E
:10168000F80180818460808380EBE82EF12CF701E3
:10169000808181608083E1E9F0E0808182608083E5
:1016A000808181608083E0E9F0E0808181608083D7
:1016B000EAE7F0E080818460808380818D7F808391
:1016C00080818E7F80838081806880831092C100BA
:1016D00061E08DE00E943902E3EAF7E0A089B18978
:1016E00082E08C93A485B5851C92A685B78582E29D
:1016F0008C93108EA489B58986E08C93A289B389D6
:101700008C9180618C93A289B3898C9188608C9331
:10171000A289B3898C9180688C930288F389E02D2B
:1017200080818F7D808388818E7F8883EFE6F0E0E3
:1017300080818E7F8083C0E7D0E088818E7F888320
:10174000E1E7F0E080818E7F8083EEE7F0E080814A
:101750008160808360E08EE00E94390260E088E072
:101760000E94390260E089E00E94390260E08AE06C
:101770000E94390260E08BE00E94390260E08CE058
:101780000E94390260E085E00E94390260E086E054
:101790000E94390260E087E00E94390260E080E147
:1017A0000E94390260E081E10E94390260E082E13A
:1017B0000E94390260E083E10E94390263E084E024
:1017C0000E9439028CE08093A000F7011082F8019A
:1017D00010821092B2008FEF8093B300F7018081E6
:1017E00082608083F801808181608083888182604B
:1017F000888388818D7F88830E944608E3EAF7E02A
:101800001382128288EE93E0A0E0B0E08483958397
:10181000A683B7838DE191E09183808385EC90E08E
:101820009587848784EC90E09787868780EC90E0AA
:10183000918B808B81EC90E0938B828B82EC90E09B
:10184000958B848B86EC90E0978B868B118E128E15
:10185000138E148E0895662777270C94700CDC0184
:101860002D923D924D925D926D927D928D929D92C0
:10187000AD92BD92CD92DD92ED92FD920D931D93AE
:10188000CD93DD93FF91EF918DB78D938EB78D93AF
:101890008FB78D93ED93FD93882799270994DC01E9
:1018A000CB0181309105811D2D903D904D905D9033
:1018B0006D907D908D909D90AD90BD90CD90DD9080
:1018C000ED90FD900D911D91CD91DD91ED91FD91EA
:1018D0000D90F894FEBF0FBEEDBFED91FD91099400
:1018E000B0E0A0E0E6E7FCE00C94190F5C017B019E
:1018F0006115710519F0DB018D939C9385010F5FD4
:101900001F4FF501D0818D2F90E00E94C00D6C011A
:10191000892BB9F5DD32B9F50F5F1F4FD50111964F
:10192000DC91C1E05801F1E0AF1AB10843E050E0AA
:1019300060E870E0C5010E94C90D892B69F5680156
:1019400082E0C80ED11C45E050E06BE770E0C601B4
:101950000E94C90D892B21F4680197E0C90ED11CA2
:10196000E114F10419F0D701CD92DC9260E070E04F
:1019700080E89FEFC111FFC060E070E080E89FE762
:10198000FAC05801BBCFDB3229F485010E5F1F4F2F
:10199000F501D181C0E0C6CF43E050E068E770E0D8
:1019A000C5010E94C90D892BE9F0F80110E000E0A3
:1019B00020E030E0A9015F01B0ED8B2E8D0E89E0B3
:1019C0008815C8F19C2E689491F88C2F8870C2FFFE
:1019D00016C0811102C00F5F1F4F3196D501DC91F7
:1019E000C92DE9CFE114F10429F00E5F1F4FF70173
:1019F0001183008360E070E080EC9FE7BCC0882327
:101A000011F001501109A5E0B0E00E94080F9B0100
:101A1000AC01220F331F441F551F280D311D411DDE
:101A2000511D283999E93907490799E15907A8F261
:101A3000C6609C2ED2CFAEEF8A1206C0C3FD3CC05A
:101A40009C2E689493F8C9CFDF7DD534A9F58081A9
:101A50008D3239F4C061DF011296818162E070E05D
:101A600006C0DF018B32C1F3119661E070E0805354
:101A70005D01A61AB70A8A30F8F4E0E8CE16ECE069
:101A8000DE065CF4B601660F771F660F771FC60E81
:101A9000D71ECC0CDD1CC80ED11C5D01FFEFAF1AA8
:101AA000BF0A8C9180538A30A8F1C4FF03C0D1943F
:101AB000C194D1080C0D1D1DC1FF09C0E114F10432
:101AC00031F081E0A81AB108D701AD92BC92CA01E9
:101AD000B9010E94E60DC370C33009F490584B0160
:101AE0005C0120E030E0A9010E94E10D882309F4A7
:101AF00040C0CFEAD0E017FF05C01195019511094C
:101B0000C7E9D0E06E01B8E1CB1AD10880E2E82E37
:101B1000F12C0FC0D501B1CFFE0125913591459132
:101B200054910E191F09C501B4010E94470E4B01C3
:101B30005C01D501C4010E151F0574F72497F594B7
:101B4000E794CC16DD06A9F78A2F880F8B2F881F04
:101B50008F3F49F020E030E0A901C501B4010E94A7
:101B6000E10D811106C082E290E090934E088093CF
:101B70004D08C501B401CDB7DEB7ECE00C94350FCC
:101B800091110C94B40E803219F089508550C8F729
:101B90000895FB01DC014150504088F08D91813463
:101BA0001CF08B350CF4805E659161341CF06B3554
:101BB0000CF4605E861B611171F3990B0895881B0C
:101BC000FCCF0E94230E08F481E00895E89409C038
:101BD00097FB3EF490958095709561957F4F8F4F60
:101BE0009F4F9923A9F0F92F96E9BB279395F69576
:101BF000879577956795B795F111F8CFFAF4BB0FF4
:101C000011F460FF1BC06F5F7F4F8F4F9F4F16C057
:101C1000882311F096E911C0772321F09EE8872FE1
:101C2000762F05C0662371F096E8862F70E060E09D
:101C30002AF09A95660F771F881FDAF7880F969516
:101C4000879597F90895990F0008550FAA0BE0E8BA
:101C5000FEEF16161706E807F907C0F0121613066E
:101C6000E407F50798F0621B730B840B950B39F4AE
:101C70000A2661F0232B242B252B21F408950A2614
:101C800009F4A140A6958FEF811D811D08950E9442
:101C90005A0E0C94CE0E0E94C00E38F00E94C70E51
:101CA00020F0952311F00C94B70E0C94BD0E112466
:101CB0000C94020F0E94DF0E70F3959FC1F3950FF5
:101CC00050E0551F629FF001729FBB27F00DB11DC0
:101CD000639FAA27F00DB11DAA1F649F6627B00D50
:101CE000A11D661F829F2227B00DA11D621F739F39
:101CF000B00DA11D621F839FA00D611D221F749F47
:101D00003327A00D611D231F849F600D211D822F8D
:101D1000762F6A2F11249F5750409AF0F1F08823B4
:101D20004AF0EE0FFF1FBB1F661F771F881F9150E1
:101D30005040A9F79E3F510580F00C94B70E0C94CB
:101D4000020F5F3FE4F3983ED4F38695779567954D
:101D5000B795F795E7959F5FC1F7FE2B880F911D0B
:101D60009695879597F9089599278827089597F963
:101D70009F6780E870E060E008959FEF80EC089531
:101D800000240A941616170618060906089500245A
:101D90000A9412161306140605060895092E0394D4
:101DA000000C11F4882352F0BB0F40F4BF2B11F448
:101DB00060FF04C06F5F7F4F8F4F9F4F089557FDA7
:101DC0009058440F551F59F05F3F71F04795880FA9
:101DD00097FB991F61F09F3F79F087950895121640
:101DE00013061406551FF2CF4695F1DF08C01616EC
:101DF00017061806991FF1CF86957105610508949D
:101E00000895E894BB2766277727CB0197F90895B3
:101E10000E944A0FA59F900DB49F900DA49F800D26
:101E2000911D112408952F923F924F925F926F92CD
:101E30007F928F929F92AF92BF92CF92DF92EF925A
:101E4000FF920F931F93CF93DF93CDB7DEB7CA1BDB
:101E5000DB0B0FB6F894DEBF0FBECDBF09942A8806
:101E6000398848885F846E847D848C849B84AA84AE
:101E7000B984C884DF80EE80FD800C811B81AA813B
:101E8000B981CE0FD11D0FB6F894DEBF0FBECDBF06
:101E9000ED010895A29FB001B39FC001A39F700DF3
:101EA000811D1124911DB29F700D811D1124911D62
:101EB00008955058BB27AA270E94710F0C94CE0E8C
:101EC0000E94C00E38F00E94C70E20F039F49F3FE8
:101ED00019F426F40C94BD0E0EF4E095E7FB0C9477
:101EE000B70EE92F0E94DF0E58F3BA176207730787
:101EF0008407950720F079F4A6F50C94010F0EF4F1
:101F0000E0950B2EBA2FA02D0B01B90190010C0109
:101F1000CA01A0011124FF27591B99F0593F50F421
:101F2000503E68F11A16F040A22F232F342F442779
:101F3000585FF3CF469537952795A795F040539571
:101F4000C9F77EF41F16BA0B620B730B840BBAF041
:101F50009150A1F0FF0FBB1F661F771F881FC2F7AC
:101F60000EC0BA0F621F731F841F48F487957795C0
:101F70006795B795F7959E3F08F0B0CF9395880F7A
:101F800008F09927EE0F9795879508950E94A7105E
:101F900090F09F3748F4911116F40C94020F60E012
:101FA00070E080E89FE3089526F01B16611D711D07
:101FB000811D0C947E100C9499100E94F10F0C94CA
:101FC000CE0E0E94C70E58F00E94C00E40F029F4B9
:101FD0005F3F29F00C94B70E51110C94020F0C9432
:101FE000BD0E0E94DF0E68F39923B1F3552391F3E0
:101FF000951B550BBB27AA2762177307840738F078
:102000009F5F5F4F220F331F441FAA1FA9F335D0D4
:102010000E2E3AF0E0E832D091505040E695001C88
:10202000CAF72BD0FE2F29D0660F771F881FBB1F42
:10203000261737074807AB07B0E809F0BB0B802D20
:10204000BF01FF2793585F4F3AF09E3F510578F04C
:102050000C94B70E0C94020F5F3FE4F3983ED4F358
:10206000869577956795B795F7959F5FC9F7880F20
:10207000911D9695879597F90895E1E0660F771F72
:10208000881FBB1F621773078407BA0720F0621B03
:10209000730B840BBA0BEE1F88F7E09508950E942E
:1020A000E70E88F09F5798F0B92F9927B751B0F0F5
:1020B000E1F0660F771F881F991F1AF0BA95C9F7CC
:1020C00014C0B13091F00E94010FB1E008950C945A
:1020D000010F672F782F8827B85F39F0B93FCCF30D
:1020E000869577956795B395D9F73EF49095809549
:1020F000709561957F4F8F4F9F4F0895882371F49E
:10210000772321F09850872B762F07C0662311F490
:1021100099270DC09051862B70E060E02AF09A95C7
:10212000660F771F881FDAF7880F9695879597F9BE
:1021300008959F3F31F0915020F4879577956795EA
:10214000B795880F911D9695879597F908950E94E8
:10215000E70EA0F0BEE7B91788F4BB279F3860F4FC
:102160001616B11D672F782F8827985FF7CF8695B1
:1021700077956795B11D93959639C8F308950E9498
:10218000230E08F48FEF0895EE0FFF1F0590F491D2
:08219000E02D0994F894FFCF43
:102198000001FFFD8001A48C3836000002000027F2
:1021A80001000064000000000200000000D20133BA
:1021B800016001190291016F0183010008000E00FE
:1021C80000010802080308010E0100020E020003C4
:0421D8000E030000F2
:00000001FF
