:100000000C9468000C9490000C9490000C94900058
:100010000C9490000C9490000C9490000C94900020
:100020000C9490000C9490000C9490000C94900010
:100030000C9490000C9490000C9490000C94900000
:100040000C94AB020C9490000C9417030C94F102E6
:100050000C9490000C9490000C9490000C949000E0
:100060000C9490000C9490000000000024002700E5
:100070002A002D0000000000250028002B002E0083
:10008000040404040404040402020202020203033E
:100090000303030305050505050505010204081012
:1000A00020408001020408102001020408102002F0
:1000B0000801041020400000000850020100000365
:1000C000040700000000000000000000490394083D
:1000D00011241FBECFEFD8E0DEBFCDBF11E0A0E0FE
:1000E000B1E0E4E2F6E102C005900D92AE31B10755
:1000F000D9F725E0AEE1B1E001C01D92A03CB20706
:10010000E1F710E0C7E6D0E004C02197FE010E94AD
:10011000320AC636D107C9F70E94C2030C94050BF8
:100120000C940000E3ECF0E02491E8EAF0E0349174
:10013000EDE8F0E09491992361F12223C9F0215078
:100140002B30B0F4E22FF0E0E855FF4F0C94320A68
:10015000CE00D200B300CA00B800B800D500DB0062
:10016000DF00E500E900209180002F7720938000D8
:10017000E92FF0E0EE0FFF1FEC58FF4FA591B4916F
:100180009FB7F894EC91811128C030953E233C93A1
:100190009FBF0895209180002F7DE8CF24B52F7751
:1001A00024BDE6CF24B52F7DFBCF2091B0002F7763
:1001B0002093B000DDCF2091B0002F7DF9CF2091AA
:1001C00090002F7720939000D3CF209190002F7D27
:1001D000F9CF20919000277FF5CF3E2BD8CFAF925B
:1001E000BF92CF92DF92EF92FF920F931F93CF9324
:1001F000DF936C017B018B01040F151FEB015E0186
:10020000AE18BF08C017D10759F06991D601ED911A
:10021000FC910190F081E02DC6010995892B79F7B9
:10022000C501DF91CF911F910F91FF90EF90DF906B
:10023000CF90BF90AF900895FC01538D448D252F32
:1002400030E0842F90E0821B930B541710F0CF9670
:10025000089501970895FC01918D828D981761F0A2
:10026000A28DAE0FBF2FB11D5D968C91928D9F5FB9
:100270009F73928F90E008958FEF9FEF08952FB7AF
:10028000F8948091140590911505A0911605B091F0
:1002900017052FBF8093200590932105A093220579
:1002A000B093230588E195E00E942B0197FF26C0BB
:1002B0002FB7F8948091140590911505A09116051B
:1002C000B09117052FBF40912005509121056091F5
:1002D000220570912305841B950BA60BB70B40914B
:1002E0001C0550911D0560911E0570911F05841716
:1002F0009507A607B707B0F28FEF9FEF0895FC01AF
:10030000918D828D981731F0828DE80FF11D858DCA
:1003100090E008958FEF9FEF0895FC01918D228D5D
:10032000892F90E0805C9F4F821B91098F739927E2
:10033000089588E195E00E948D0121E0892B09F460
:1003400020E0822F089580E090E0892B29F00E9420
:10035000990181110C9400000895FC01A48DA80F4F
:10036000B92FB11DA35ABF4F2C91848D90E00196F7
:100370008F739927848FA689B7892C93A089B18917
:100380008C9180648C93938D848D981306C0028821
:10039000F389E02D80818F7D80830895EF92FF9215
:1003A0000F931F93CF93DF93EC0181E0888F9B8D98
:1003B0008C8D981316C0E889F989808185FF11C05A
:1003C000EE89FF896083E889F98980818064808370
:1003D00081E090E0DF91CF911F910F91FF90EF901E
:1003E0000895F62E0B8D10E00F5F1F4F0F7311272E
:1003F000E02E8C8D8E110CC00FB607FCFACFE88969
:10040000F989808185FFF5CFCE010E94AD01F1CF42
:10041000EB8DEC0FFD2FF11DE35AFF4FF0820B8F98
:10042000EA89FB8980818062D2CFCF93DF93EC0190
:10043000888D8823B9F0AA89BB89E889F9898C91CC
:1004400085FD03C0808186FD0DC00FB607FCF7CF88
:100450008C9185FFF2CF808185FFEDCFCE010E9488
:10046000AD01E9CFDF91CF910895CF93DF93282F8E
:1004700030E0F901E556FF4F949120583F4FF901C4
:100480002491633029F5843029F43091A0003C6038
:100490003093A0002223C9F030E0220F331FF9016E
:1004A000E859FF4FA591B491F901EC58FF4FC59160
:1004B000D491611111C02FB7F8948C919095892334
:1004C0008C938881982398832FBFDF91CF910895D3
:1004D000843001F733E0DCCF623051F42FB7F89469
:1004E0003C91892F809583238C93E8819E2BEBCFC1
:1004F000843011F4613049F78FB7F894EC919E2B5A
:100500009C938FBFE2CF0F931F93CF93DF93EC01A8
:1005100088819981009759F02A813B8126173707F6
:1005200030F081E0DF91CF911F910F9108958B0101
:100530006F5F7F4F0E94380A009759F09983888334
:100540001B830A832C813D81232B59F7FC011082E8
:10055000E8CF80E0E7CF1F920F920FB60F921124E1
:100560002F933F938F939F93AF93BF9380911405E5
:1005700090911505A0911605B091170530911305BE
:1005800020E4230F2D3728F023EC230F0196A11D23
:10059000B11D209313058093140590931505A09326
:1005A0001605B093170580910F0590911005A09145
:1005B0001105B09112050196A11DB11D80930F0583
:1005C00090931005A0931105B0931205BF91AF91C0
:1005D0009F918F913F912F910F900FBE0F901F9081
:1005E00018951F920F920FB60F9211242F933F93DD
:1005F0004F935F936F937F938F939F93AF93BF932B
:10060000EF93FF9388E195E00E94AD01FF91EF9198
:10061000BF91AF919F918F917F916F915F914F911A
:100620003F912F910F900FBE0F901F9018951F9222
:100630000F920FB60F9211242F938F939F93EF93E6
:10064000FF93E0912805F09129058081E0912E0526
:10065000F0912F0582FD1BC09081809131058F5F45
:100660008F7320913205821741F0E0913105F0E05F
:10067000E85EFA4F958F80933105FF91EF919F913E
:100680008F912F910F900FBE0F901F901895808122
:10069000F4CF10921B0510921A0588EE93E0A0E0AB
:1006A000B0E080931C0590931D05A0931E05B093A8
:1006B0001F058EE091E0909319058093180585EC55
:1006C00090E0909325058093240584EC90E090932E
:1006D00027058093260580EC90E090932905809370
:1006E000280581EC90E090932B0580932A0582ECFD
:1006F00090E090932D0580932C0586EC90E09093EC
:100700002F0580932E05109231051092320510921C
:100710003305109234058CE48093BB051092B60526
:100720001092B5051092B8051092B7051092BA054F
:100730001092B90570E060E085EB95E00E948302BD
:100740002091B5053091B605811113C021153105F1
:1007500019F0C9010E9436091092B6051092B5052C
:100760001092BA051092B9051092B8051092B7050B
:1007700008951092BA051092B9056CE171E0C901B3
:100780000C94FE0ACF93DF93CDB7DEB728970FB650
:10079000F894DEBF0FBECDBF8091F20080618EBBAA
:1007A00080E88093F2009EB39093F2008093610002
:1007B00001E00093610080936100109261007894E1
:1007C00084B5826084BD84B5816084BD85B5826056
:1007D00085BD85B5816085BD80916E008160809307
:1007E0006E00109281008091810082608093810070
:1007F0008091810081608093810080918000816080
:10080000809380008091B10084608093B1008091DA
:10081000B00081608093B0008091910082608093ED
:10082000910080919100816080939100809190006F
:1008300081608093900080917A00846080937A0038
:1008400080917A00826080937A0080917A00816042
:1008500080937A0080917A00806880937A00109269
:10086000C10061E08DE00E94350263E084E00E94F7
:1008700035028CE08093A000E0912805F0912905D5
:1008800012E01083E0912405F09125051082E0919B
:100890002605F091270580E1808310923005E091D4
:1008A0002C05F0912D0586E08083E0912A05F091DA
:1008B0002B05808180618083E0912A05F0912B05D2
:1008C000808188608083E0912A05F0912B058081EA
:1008D00080688083E0912A05F0912B0580818F7DCF
:1008E000808384E690E0A0E0B0E080931C059093C4
:1008F0001D05A0931E05B0931F0560E082E00E94D5
:10090000350260E083E00E94350260E085E00E94ED
:10091000350260E086E00E94350260E087E00E94D8
:100920003502109280000093810080917E008160EA
:1009300080937E0080916E008E7F80936E00809108
:100940006F008E7F80936F00809170008E7F809308
:100950007000809171008E7F80937100F89460E048
:100960008EE00E94350280E680937C001092AD00FC
:1009700010927B0010937D0088E98093DC007894CE
:100980009E012F5F3F4F7901C901805C95402C018A
:1009900088E8882E83E1982E90E0692E90E0792EE9
:1009A00088E195E00E948D0103970CF4A4C088E1D2
:1009B00095E00E942B01D82E1A8219821C821B827C
:1009C0001E821D8270E060E0C7010E9483022981BF
:1009D0003A8181112DC02115310519F0C9010E94FC
:1009E00036091A8219821E821D821C821B820E9475
:1009F0003F010D811E8197FD23C08E33910501F1CA
:100A00008F8318860F5F1F4FB801C7010E948302B2
:100A1000882369F329813A818D819E81BE01695FB6
:100A20007F4F820F931F0E94FE0A1E830D83DFCF2C
:100A30001E821D826CE171E0C9010E94FE0AD7CFBF
:100A4000A980BA80012B09F453C060E070E0CB01AB
:100A5000A114B10419F0C5010E94BF09E3E4DE123C
:100A600008C07093030160930201C5010E9436091A
:100A700097CFF6E5DF120DC077FD09C06F3F710516
:100A800019F014F06FEF70E06093BB05EECF60E0FB
:100A9000FBCF20E5D21210C0653F31E0730714F0A0
:100AA00064EF71E01616170614F061E070E07093C1
:100AB000010160930001D9CF44E4D4120BC0161693
:100AC000170614F461E070E077FD60E061706093F8
:100AD0000E05CBCFE9E4DE12C8CF1616170614F4C4
:100AE00061E070E077FD60E0617060932101BDCF4F
:100AF000C5010E9436099092230180922201209123
:100B0000BB0580912101882309F0F89482EE80933F
:100B10007A00109285001092840050E040E08091AD
:100B2000220190912301609100017091010146170B
:100B300057070CF04CC0892B09F449C08091840000
:100B400090918500609102017091030186179707CB
:100B500030F48091A1008F5F8093A100EFCF30919E
:100B60007900309320018091840090918500861B4C
:100B7000970B909385008093840080911E01909143
:100B80001F01FC01E85EFC4F30830196843FF1E0D9
:100B90009F07C1F090931F0180931E0189B1E091DE
:100BA0001E01F0911F01EC5DFE4F808380912201B8
:100BB00090912301019790932301809322014F5F2D
:100BC0005F4FADCF10921F0110921E01E7CF8091B1
:100BD0000E058111ABC04091220150912301822F5B
:100BE0002E3F08F08DEF8E5F90912001981708F04E
:100BF0007AC0452B09F477C08091840090918500DC
:100C000040910201509103018417950730F48091BF
:100C1000A1008F5F8093A100EFCF309179003093D6
:100C200020018091840090918500841B950B909306
:100C300085008093840080911E0190911F01FC012A
:100C4000E85EFC4F30830196843F31E09307B1F0BA
:100C500090931F0180931E0189B1E0911E01F091D4
:100C60001F01EC5DFE4F8083809122019091230152
:100C700001979093230180932201ADCF10921F0121
:100C800010921E01E9CF30917900309320018091BC
:100C9000840090918500841B950B90938500809330
:100CA000840080911E0190911F01FC01E85EFC4FC1
:100CB00030830196843F41E0940799F190931F019E
:100CC00080931E0189B1E0911E01F0911F01EC5D3E
:100CD000FE4F808380912201909123010197909390
:100CE0002301809322018091220190912301409160
:100CF00020013091BB053417C8F4892BB9F08091DD
:100D00008400909185004091020150910301841765
:100D1000950708F0B8CF8091A1008F5F8093A10064
:100D2000EECF10921F0110921E01CCCF80910E05C4
:100D3000882309F4ABC04091220150912301822FF6
:100D4000223008F482E0825090912001891708F047
:100D50007AC0452B09F477C080918400909185007A
:100D600040910201509103018417950730F480915E
:100D7000A1008F5F8093A100EFCF30917900309375
:100D800020018091840090918500841B950B9093A5
:100D900085008093840080911E0190911F01FC01C9
:100DA000E85EFC4F30830196843FE1E09E07B1F09E
:100DB00090931F0180931E0189B1E0911E01F09173
:100DC0001F01EC5DFE4F80838091220190912301F1
:100DD00001979093230180932201ADCF10921F01C0
:100DE00010921E01E9CF209179002093200180917B
:100DF000840090918500841B950B909385008093CF
:100E0000840080911E0190911F01FC01E85EFC4F5F
:100E100020830196843FF1E09F0799F190931F0191
:100E200080931E0189B1E0911E01F0911F01EC5DDC
:100E3000FE4F80838091220190912301019790932E
:100E4000230180932201809122019091230130910E
:100E500020012091BB053217C8F4892BB9F080918D
:100E60008400909185004091020150910301841704
:100E7000950708F0B8CF8091A1008F5F8093A10003
:100E8000EECF10921F0110921E01CCCF8091220153
:100E900090912301892B71F510920D0510920C058C
:100EA00080910C0590910D05209100013091010178
:100EB000821B930B9C012150310937FF02C02C503B
:100EC0003E4F80911E0190911F018217930709F4F4
:100ED00050C08091840090918500609102017091D2
:100EE00003018617970778F48091A1008F5F8093A4
:100EF000A100EFCF80911E0190911F0190930D05ED
:100F000080930C05CDCF40917900409320018091D2
:100F1000840090918500861B970B909385008093A9
:100F2000840080911E0190911F01FC01E85EFC4F3E
:100F300040830196843F41E09407B1F090931F01F4
:100F400080931E0189B1E0911E01F0911F01EC5DBB
:100F5000FE4F80838091220190912301019790930D
:100F6000230180932201ADCF10921F0110921E0128
:100F7000E9CF10927A0080912101882309F07894BA
:100F800081E00E9492006FEF88E195E00E94CE011F
:100F90006FEF88E195E00E94CE016FEF88E195E068
:100FA0000E94CE016FEF88E195E00E94CE01609132
:100FB000BB0588E195E00E94CE0160910E0588E1B5
:100FC00095E00E94CE01609102011091030188E139
:100FD00095E00E94CE01612F88E195E00E94CE014C
:100FE000A0900001B09001016A2D88E195E00E9477
:100FF000CE016B2D88E195E00E94CE018091BC0569
:101000009091BD05009709F06CC05A8249826981B0
:101010001A8188E195E00E94CE01612F88E195E078
:101020000E94CE0164EF88E195E00E94CE0161E06C
:1010300088E195E00E94CE0180E00E949200D12CD0
:10104000C12C00910C0510910D050A191B09C8014E
:101050008C0D9D1D843FE1E09E070CF45BC0845F16
:101060009140885E9C4FFC0160816F3F09F46EEFF8
:1010700088E195E00E94CE01FFEFCF1ADF0A24EF4E
:10108000C21621E0D206E9F668013CE0C31A3EEF41
:10109000D30AC801043F41E014070CF440C0845F48
:1010A00091408C5D9E4FFC0160816F3F09F46EEFB3
:1010B00088E195E00E94CE010F5F1F4FC016D10658
:1010C00041F788E195E00E9415026114710409F46A
:1010D00067CC0E949901882309F45ACC0E94000031
:1010E00057CC9701281B390BE091BE05F091BF0545
:1010F00090E080E0309749F0029640815181840F62
:10110000951F0280F381E02DF5CF820F931F9A8304
:1011100089837DCF97FFA5CF8C509E4FA2CF17FF1D
:10112000C0CF8C509E4FBDCF8091B5059091B60534
:101130000C9436090F931F93CF93DF938230910560
:1011400010F482E090E0E091BE05F091BF0530E040
:1011500020E0B0E0A0E0309799F42115310509F4C2
:101160004AC0281B390B24303105D8F58A819B8170
:101170006115710589F1FB0193838283FE0111C022
:10118000408151810281138148175907E0F04817C7
:10119000590799F4109761F012960C9312971396D1
:1011A0001C933296CF01DF91CF911F910F9108953B
:1011B0000093BE051093BF05F4CF2115310551F002
:1011C0004217530738F0A901DB019A01BD01DF0185
:1011D000F801C1CFEF01F9CF9093BF058093BE0511
:1011E000CDCFFE01E20FF31F81939193225031097D
:1011F00039832883D7CF2091BC053091BD05232B9F
:1012000041F420910601309107013093BD052093F0
:10121000BC0520910401309105012115310541F4EF
:101220002DB73EB74091080150910901241B350BA1
:10123000E091BC05F091BD05E217F307A0F42E1B69
:101240003F0B2817390778F0AC014E5F5F4F24172A
:10125000350748F04E0F5F1F5093BD054093BC0506
:10126000819391939FCFF0E0E0E09CCFCF93DF9309
:101270000097E9F0FC01329713821282A091BE051B
:10128000B091BF05ED0130E020E01097A1F420817E
:101290003181820F931F2091BC053091BD05281725
:1012A000390709F061C0F093BD05E093BC05DF91FB
:1012B000CF910895EA01CE17DF07E8F54A815B81F7
:1012C0009E0141155105B1F7E901FB83EA8349917C
:1012D0005991C40FD51FEC17FD0761F480819181EE
:1012E0000296840F951FE9019983888382819381F7
:1012F0009B838A83F0E0E0E012968D919C91139796
:101300000097B9F52D913C911197CD010296820F6E
:10131000931F2091BC053091BD052817390739F678
:10132000309751F51092BF051092BE05B093BD05E0
:10133000A093BC05BCCFD383C28340815181840F6D
:10134000951FC817D90761F44E5F5F4F8881998157
:10135000480F591F518340838A819B8193838283E5
:101360002115310509F0B0CFF093BF05E093BE051C
:101370009ECFFD01DC01C0CF13821282D7CF1F9315
:10138000FC0199278827BC01E89411911032E9F3F8
:10139000193010F01E30C8F31B3251F01D3249F4E1
:1013A000689406C00E94E609610F711D811D911DA0
:1013B000119110531A30B0F33EF4909580957095CA
:1013C00061957F4F8F4F9F4F1F910895592F482F41
:1013D000372F262F660F771F881F991F660F771FDD
:1013E000881F991F620F731F841F951F660F771F39
:1013F000881F991F08952F923F924F925F926F928C
:101400007F928F929F92AF92BF92CF92DF92EF9294
:10141000FF920F931F93CF93DF93CDB7DEB7CA1B15
:10142000DB0B0FB6F894DEBF0FBECDBF09942A8840
:10143000398848885F846E847D848C849B84AA84E8
:10144000B984C884DF80EE80FD800C811B81AA8175
:10145000B981CE0FD11D0FB6F894DEBF0FBECDBF40
:10146000ED010895EE0FFF1F0590F491E02D099412
:10147000B0E0A0E0EEE3FAE00C94FD098C010097E7
:1014800051F4CB010E949A088C01C801CDB7DEB798
:10149000E0E10C94190AFC01E60FF71F9C012250B1
:1014A0003109E217F30708F49DC0D901CD91DC9111
:1014B0001197C617D70798F0C530D10530F3CE0184
:1014C00004978617970708F3C61BD70B2297C1937B
:1014D000D1936D937C93CF010E943609D6CF5B01E7
:1014E000AC1ABD0A4C018C0E9D1EA091BE05B09198
:1014F000BF05512C412CF12CE12C109731F5809136
:10150000BC059091BD058815990509F05CC046168B
:10151000570608F058C0809104019091050100978A
:1015200041F48DB79EB74091080150910901841B89
:10153000950BE817F90708F055C0F093BD05E09347
:10154000BC05F90171836083A0CF8D919C911197A7
:1015500012966C90129713967C901397A815B90564
:1015600059F56C0142E0C40ED11CCA14DB0420F111
:10157000AC014A195B09DA011296159780F0628274
:10158000738251834083D9016D937C93E114F104FC
:1015900071F0D7011396FC93EE93129776CF2296B3
:1015A0008C0F9D1FF90191838083F301EFCFF0939E
:1015B000BF05E093BE0569CF4816590608F42C0113
:1015C0007D01D3019ACFCB010E949A087C0100973C
:1015D00049F0AE01B8010E94F50AC8010E9436091F
:1015E000870153CF10E000E050CFFB01DC0102C0C7
:1015F00001900D9241505040D8F70895FB01DC0155
:1016000001900D920020E1F7089510E0C7E6D0E0C8
:1016100004C0FE010E94320A2196C836D107C9F7DC
:04162000F894FFCF6C
:10162400A6004F000000C005800000000000CE01AD
:0E163400EF001C0115028D012B017F0100004B
:00000001FF
